{
  "_format": "hh-sol-artifact-1",
  "contractName": "DebugOraclePoll",
  "sourceName": "contracts/DebugOraclePoll.sol",
  "abi": [
    {
      "inputs": [
        {
          "internalType": "address",
          "name": "_usdToken",
          "type": "address"
        }
      ],
      "stateMutability": "nonpayable",
      "type": "constructor"
    },
    {
      "anonymous": false,
      "inputs": [
        {
          "indexed": true,
          "internalType": "uint256",
          "name": "pollId",
          "type": "uint256"
        },
        {
          "indexed": false,
          "internalType": "string",
          "name": "question",
          "type": "string"
        },
        {
          "indexed": false,
          "internalType": "uint256",
          "name": "commitEndTime",
          "type": "uint256"
        }
      ],
      "name": "PollCreated",
      "type": "event"
    },
    {
      "anonymous": false,
      "inputs": [
        {
          "indexed": true,
          "internalType": "uint256",
          "name": "pollId",
          "type": "uint256"
        },
        {
          "indexed": false,
          "internalType": "uint256",
          "name": "winningOptionIndex",
          "type": "uint256"
        },
        {
          "indexed": false,
          "internalType": "uint256",
          "name": "totalStake",
          "type": "uint256"
        },
        {
          "indexed": false,
          "internalType": "uint256",
          "name": "winnerCount",
          "type": "uint256"
        }
      ],
      "name": "PollResolved",
      "type": "event"
    },
    {
      "anonymous": false,
      "inputs": [
        {
          "indexed": true,
          "internalType": "address",
          "name": "user",
          "type": "address"
        }
      ],
      "name": "PremiumPurchased",
      "type": "event"
    },
    {
      "anonymous": false,
      "inputs": [
        {
          "indexed": true,
          "internalType": "uint256",
          "name": "pollId",
          "type": "uint256"
        },
        {
          "indexed": true,
          "internalType": "address",
          "name": "voter",
          "type": "address"
        }
      ],
      "name": "VoteCommitted",
      "type": "event"
    },
    {
      "anonymous": false,
      "inputs": [
        {
          "indexed": true,
          "internalType": "uint256",
          "name": "pollId",
          "type": "uint256"
        },
        {
          "indexed": true,
          "internalType": "address",
          "name": "voter",
          "type": "address"
        },
        {
          "indexed": false,
          "internalType": "uint256",
          "name": "optionIndex",
          "type": "uint256"
        }
      ],
      "name": "VoteRevealed",
      "type": "event"
    },
    {
      "inputs": [],
      "name": "MEMBERSHIP_COST",
      "outputs": [
        {
          "internalType": "uint256",
          "name": "",
          "type": "uint256"
        }
      ],
      "stateMutability": "view",
      "type": "function"
    },
    {
      "inputs": [],
      "name": "STAKE_AMOUNT",
      "outputs": [
        {
          "internalType": "uint256",
          "name": "",
          "type": "uint256"
        }
      ],
      "stateMutability": "view",
      "type": "function"
    },
    {
      "inputs": [],
      "name": "admin",
      "outputs": [
        {
          "internalType": "address",
          "name": "",
          "type": "address"
        }
      ],
      "stateMutability": "view",
      "type": "function"
    },
    {
      "inputs": [],
      "name": "buyPremium",
      "outputs": [],
      "stateMutability": "nonpayable",
      "type": "function"
    },
    {
      "inputs": [
        {
          "internalType": "uint256",
          "name": "",
          "type": "uint256"
        },
        {
          "internalType": "address",
          "name": "",
          "type": "address"
        },
        {
          "internalType": "uint256",
          "name": "",
          "type": "uint256"
        }
      ],
      "name": "commitments",
      "outputs": [
        {
          "internalType": "bytes32",
          "name": "",
          "type": "bytes32"
        }
      ],
      "stateMutability": "view",
      "type": "function"
    },
    {
      "inputs": [
        {
          "internalType": "address",
          "name": "",
          "type": "address"
        }
      ],
      "name": "isPremium",
      "outputs": [
        {
          "internalType": "bool",
          "name": "",
          "type": "bool"
        }
      ],
      "stateMutability": "view",
      "type": "function"
    },
    {
      "inputs": [
        {
          "internalType": "address",
          "name": "user",
          "type": "address"
        }
      ],
      "name": "isPremiumUser",
      "outputs": [
        {
          "internalType": "bool",
          "name": "",
          "type": "bool"
        }
      ],
      "stateMutability": "view",
      "type": "function"
    },
    {
      "inputs": [],
      "name": "nextPollId",
      "outputs": [
        {
          "internalType": "uint256",
          "name": "",
          "type": "uint256"
        }
      ],
      "stateMutability": "view",
      "type": "function"
    },
    {
      "inputs": [
        {
          "internalType": "uint256",
          "name": "",
          "type": "uint256"
        },
        {
          "internalType": "uint256",
          "name": "",
          "type": "uint256"
        }
      ],
      "name": "optionTallies",
      "outputs": [
        {
          "internalType": "uint256",
          "name": "",
          "type": "uint256"
        }
      ],
      "stateMutability": "view",
      "type": "function"
    },
    {
      "inputs": [
        {
          "internalType": "uint256",
          "name": "",
          "type": "uint256"
        }
      ],
      "name": "polls",
      "outputs": [
        {
          "internalType": "uint256",
          "name": "id",
          "type": "uint256"
        },
        {
          "internalType": "string",
          "name": "question",
          "type": "string"
        },
        {
          "internalType": "uint256",
          "name": "commitEndTime",
          "type": "uint256"
        },
        {
          "internalType": "uint256",
          "name": "revealEndTime",
          "type": "uint256"
        },
        {
          "internalType": "uint256",
          "name": "totalStake",
          "type": "uint256"
        },
        {
          "internalType": "bool",
          "name": "resolved",
          "type": "bool"
        },
        {
          "internalType": "uint256",
          "name": "winningOptionIndex",
          "type": "uint256"
        }
      ],
      "stateMutability": "view",
      "type": "function"
    },
    {
      "inputs": [
        {
          "internalType": "uint256",
          "name": "",
          "type": "uint256"
        },
        {
          "internalType": "address",
          "name": "",
          "type": "address"
        },
        {
          "internalType": "uint256",
          "name": "",
          "type": "uint256"
        }
      ],
      "name": "rewardClaimed",
      "outputs": [
        {
          "internalType": "bool",
          "name": "",
          "type": "bool"
        }
      ],
      "stateMutability": "view",
      "type": "function"
    },
    {
      "inputs": [],
      "name": "usdToken",
      "outputs": [
        {
          "internalType": "contract IERC20",
          "name": "",
          "type": "address"
        }
      ],
      "stateMutability": "view",
      "type": "function"
    },
    {
      "inputs": [
        {
          "internalType": "uint256",
          "name": "",
          "type": "uint256"
        },
        {
          "internalType": "address",
          "name": "",
          "type": "address"
        },
        {
          "internalType": "uint256",
          "name": "",
          "type": "uint256"
        }
      ],
      "name": "votes",
      "outputs": [
        {
          "internalType": "uint256",
          "name": "",
          "type": "uint256"
        }
      ],
      "stateMutability": "view",
      "type": "function"
    }
  ],
  "bytecode": "0x608060405234801561001057600080fd5b50604051610b92380380610b928339818101604052810190610032919061011c565b806000806101000a81548173ffffffffffffffffffffffffffffffffffffffff021916908373ffffffffffffffffffffffffffffffffffffffff16021790555033600860006101000a81548173ffffffffffffffffffffffffffffffffffffffff021916908373ffffffffffffffffffffffffffffffffffffffff16021790555050610149565b600080fd5b600073ffffffffffffffffffffffffffffffffffffffff82169050919050565b60006100e9826100be565b9050919050565b6100f9816100de565b811461010457600080fd5b50565b600081519050610116816100f0565b92915050565b600060208284031215610132576101316100b9565b5b600061014084828501610107565b91505092915050565b610a3a806101586000396000f3fe608060405234801561001057600080fd5b50600436106100cf5760003560e01c8063742fe0d41161008c578063ac2f007411610066578063ac2f00741461023a578063f851a44014610270578063f897a22b1461028e578063faf5625f146102ac576100cf565b8063742fe0d4146101aa57806378310bca146101da578063973a8bb11461020a576100cf565b80632b786571146100d45780633af1bc40146100f25780634978c38a146100fc5780634bedab191461012c5780634e9dd5811461015c57806371192b171461017a575b600080fd5b6100dc6102ca565b6040516100e991906105f9565b60405180910390f35b6100fa6102d0565b005b61011660048036038101906101119190610677565b61036d565b60405161012391906106bf565b60405180910390f35b61014660048036038101906101419190610706565b6103c3565b60405161015391906105f9565b60405180910390f35b6101646103e8565b60405161017191906105f9565b60405180910390f35b610194600480360381019061018f9190610746565b6103ed565b6040516101a191906106bf565b60405180910390f35b6101c460048036038101906101bf9190610677565b610429565b6040516101d191906106bf565b60405180910390f35b6101f460048036038101906101ef9190610746565b610449565b60405161020191906105f9565b60405180910390f35b610224600480360381019061021f9190610746565b61047b565b60405161023191906107b2565b60405180910390f35b610254600480360381019061024f91906107cd565b6104b9565b604051610267979695949392919061088a565b60405180910390f35b610278610590565b604051610285919061090f565b60405180910390f35b6102966105b6565b6040516102a39190610989565b60405180910390f35b6102b46105da565b6040516102c191906105f9565b60405180910390f35b60065481565b6001600760003373ffffffffffffffffffffffffffffffffffffffff1673ffffffffffffffffffffffffffffffffffffffff16815260200190815260200160002060006101000a81548160ff0219169083151502179055503373ffffffffffffffffffffffffffffffffffffffff167f8635c858710dee3b9bb5e5bc7fcc805c455795162aa5b74dd4a508961a36032360405160405180910390a2565b6000600760008373ffffffffffffffffffffffffffffffffffffffff1673ffffffffffffffffffffffffffffffffffffffff16815260200190815260200160002060009054906101000a900460ff169050919050565b6003602052816000526040600020602052806000526040600020600091509150505481565b600081565b6004602052826000526040600020602052816000526040600020602052806000526040600020600092509250509054906101000a900460ff1681565b60076020528060005260406000206000915054906101000a900460ff1681565b600260205282600052604060002060205281600052604060002060205280600052604060002060009250925050505481565b600160205282600052604060002060205281600052604060002081815481106104a357600080fd5b9060005260206000200160009250925050505481565b60056020528060005260406000206000915090508060000154908060010180546104e2906109d3565b80601f016020809104026020016040519081016040528092919081815260200182805461050e906109d3565b801561055b5780601f106105305761010080835404028352916020019161055b565b820191906000526020600020905b81548152906001019060200180831161053e57829003601f168201915b5050505050908060030154908060040154908060050154908060060160009054906101000a900460ff16908060070154905087565b600860009054906101000a900473ffffffffffffffffffffffffffffffffffffffff1681565b60008054906101000a900473ffffffffffffffffffffffffffffffffffffffff1681565b6103e881565b6000819050919050565b6105f3816105e0565b82525050565b600060208201905061060e60008301846105ea565b92915050565b600080fd5b600073ffffffffffffffffffffffffffffffffffffffff82169050919050565b600061064482610619565b9050919050565b61065481610639565b811461065f57600080fd5b50565b6000813590506106718161064b565b92915050565b60006020828403121561068d5761068c610614565b5b600061069b84828501610662565b91505092915050565b60008115159050919050565b6106b9816106a4565b82525050565b60006020820190506106d460008301846106b0565b92915050565b6106e3816105e0565b81146106ee57600080fd5b50565b600081359050610700816106da565b92915050565b6000806040838503121561071d5761071c610614565b5b600061072b858286016106f1565b925050602061073c858286016106f1565b9150509250929050565b60008060006060848603121561075f5761075e610614565b5b600061076d868287016106f1565b935050602061077e86828701610662565b925050604061078f868287016106f1565b9150509250925092565b6000819050919050565b6107ac81610799565b82525050565b60006020820190506107c760008301846107a3565b92915050565b6000602082840312156107e3576107e2610614565b5b60006107f1848285016106f1565b91505092915050565b600081519050919050565b600082825260208201905092915050565b60005b83811015610834578082015181840152602081019050610819565b60008484015250505050565b6000601f19601f8301169050919050565b600061085c826107fa565b6108668185610805565b9350610876818560208601610816565b61087f81610840565b840191505092915050565b600060e08201905061089f600083018a6105ea565b81810360208301526108b18189610851565b90506108c060408301886105ea565b6108cd60608301876105ea565b6108da60808301866105ea565b6108e760a08301856106b0565b6108f460c08301846105ea565b98975050505050505050565b61090981610639565b82525050565b60006020820190506109246000830184610900565b92915050565b6000819050919050565b600061094f61094a61094584610619565b61092a565b610619565b9050919050565b600061096182610934565b9050919050565b600061097382610956565b9050919050565b61098381610968565b82525050565b600060208201905061099e600083018461097a565b92915050565b7f4e487b7100000000000000000000000000000000000000000000000000000000600052602260045260246000fd5b600060028204905060018216806109eb57607f821691505b6020821081036109fe576109fd6109a4565b5b5091905056fea2646970667358221220f55374b8b0923ab360c4ed10899842119e3769bbafd8339b4b6d85a73240b3b064736f6c63430008180033",
  "linkReferences": {},
  "deployedLinkReferences": {}
}