{
  "_format": "hh-sol-artifact-1",
  "contractName": "OraclePoll",
  "sourceName": "contracts/OraclePoll.sol",
  "abi": [
    {
      "inputs": [
        {
          "internalType": "address",
          "name": "_usdToken",
          "type": "address"
        },
        {
          "internalType": "address",
          "name": "_feeCollector",
          "type": "address"
        }
      ],
      "stateMutability": "nonpayable",
      "type": "constructor"
    },
    {
      "inputs": [
        {
          "internalType": "address",
          "name": "token",
          "type": "address"
        }
      ],
      "name": "SafeERC20FailedOperation",
      "type": "error"
    },
    {
      "anonymous": false,
      "inputs": [
        {
          "indexed": true,
          "internalType": "uint256",
          "name": "pollId",
          "type": "uint256"
        },
        {
          "indexed": false,
          "internalType": "string",
          "name": "question",
          "type": "string"
        },
        {
          "indexed": false,
          "internalType": "uint256",
          "name": "commitEndTime",
          "type": "uint256"
        }
      ],
      "name": "PollCreated",
      "type": "event"
    },
    {
      "anonymous": false,
      "inputs": [
        {
          "indexed": true,
          "internalType": "uint256",
          "name": "pollId",
          "type": "uint256"
        },
        {
          "indexed": false,
          "internalType": "uint256",
          "name": "winningOptionIndex",
          "type": "uint256"
        },
        {
          "indexed": false,
          "internalType": "uint256",
          "name": "totalStake",
          "type": "uint256"
        },
        {
          "indexed": false,
          "internalType": "uint256",
          "name": "winnerCount",
          "type": "uint256"
        }
      ],
      "name": "PollResolved",
      "type": "event"
    },
    {
      "anonymous": false,
      "inputs": [
        {
          "indexed": true,
          "internalType": "address",
          "name": "user",
          "type": "address"
        },
        {
          "indexed": false,
          "internalType": "uint256",
          "name": "expiryTimestamp",
          "type": "uint256"
        }
      ],
      "name": "PremiumPurchased",
      "type": "event"
    },
    {
      "anonymous": false,
      "inputs": [
        {
          "indexed": true,
          "internalType": "uint256",
          "name": "pollId",
          "type": "uint256"
        },
        {
          "indexed": true,
          "internalType": "address",
          "name": "voter",
          "type": "address"
        }
      ],
      "name": "VoteCommitted",
      "type": "event"
    },
    {
      "anonymous": false,
      "inputs": [
        {
          "indexed": true,
          "internalType": "uint256",
          "name": "pollId",
          "type": "uint256"
        },
        {
          "indexed": true,
          "internalType": "address",
          "name": "voter",
          "type": "address"
        },
        {
          "indexed": false,
          "internalType": "uint256",
          "name": "optionIndex",
          "type": "uint256"
        }
      ],
      "name": "VoteRevealed",
      "type": "event"
    },
    {
      "inputs": [],
      "name": "COST_30_DAYS",
      "outputs": [
        {
          "internalType": "uint256",
          "name": "",
          "type": "uint256"
        }
      ],
      "stateMutability": "view",
      "type": "function"
    },
    {
      "inputs": [],
      "name": "COST_7_DAYS",
      "outputs": [
        {
          "internalType": "uint256",
          "name": "",
          "type": "uint256"
        }
      ],
      "stateMutability": "view",
      "type": "function"
    },
    {
      "inputs": [],
      "name": "STAKE_AMOUNT",
      "outputs": [
        {
          "internalType": "uint256",
          "name": "",
          "type": "uint256"
        }
      ],
      "stateMutability": "view",
      "type": "function"
    },
    {
      "inputs": [],
      "name": "admin",
      "outputs": [
        {
          "internalType": "address",
          "name": "",
          "type": "address"
        }
      ],
      "stateMutability": "view",
      "type": "function"
    },
    {
      "inputs": [
        {
          "internalType": "uint256",
          "name": "_pollId",
          "type": "uint256"
        },
        {
          "internalType": "address",
          "name": "_voter",
          "type": "address"
        },
        {
          "internalType": "uint256",
          "name": "_commitmentIndex",
          "type": "uint256"
        }
      ],
      "name": "adminClaimReward",
      "outputs": [],
      "stateMutability": "nonpayable",
      "type": "function"
    },
    {
      "inputs": [
        {
          "internalType": "uint256",
          "name": "_pollId",
          "type": "uint256"
        },
        {
          "internalType": "address",
          "name": "_voter",
          "type": "address"
        },
        {
          "internalType": "uint256",
          "name": "_commitmentIndex",
          "type": "uint256"
        },
        {
          "internalType": "uint256",
          "name": "_optionIndex",
          "type": "uint256"
        },
        {
          "internalType": "bytes32",
          "name": "_salt",
          "type": "bytes32"
        }
      ],
      "name": "adminRevealVote",
      "outputs": [],
      "stateMutability": "nonpayable",
      "type": "function"
    },
    {
      "inputs": [
        {
          "internalType": "uint256",
          "name": "_days",
          "type": "uint256"
        }
      ],
      "name": "buyPremium",
      "outputs": [],
      "stateMutability": "nonpayable",
      "type": "function"
    },
    {
      "inputs": [
        {
          "internalType": "uint256",
          "name": "_pollId",
          "type": "uint256"
        },
        {
          "internalType": "uint256",
          "name": "_commitmentIndex",
          "type": "uint256"
        }
      ],
      "name": "claimReward",
      "outputs": [],
      "stateMutability": "nonpayable",
      "type": "function"
    },
    {
      "inputs": [
        {
          "internalType": "uint256",
          "name": "_pollId",
          "type": "uint256"
        },
        {
          "internalType": "bytes32",
          "name": "_voteHash",
          "type": "bytes32"
        }
      ],
      "name": "commitVote",
      "outputs": [],
      "stateMutability": "nonpayable",
      "type": "function"
    },
    {
      "inputs": [
        {
          "internalType": "uint256",
          "name": "",
          "type": "uint256"
        },
        {
          "internalType": "address",
          "name": "",
          "type": "address"
        },
        {
          "internalType": "uint256",
          "name": "",
          "type": "uint256"
        }
      ],
      "name": "commitments",
      "outputs": [
        {
          "internalType": "bytes32",
          "name": "",
          "type": "bytes32"
        }
      ],
      "stateMutability": "view",
      "type": "function"
    },
    {
      "inputs": [
        {
          "internalType": "string",
          "name": "_question",
          "type": "string"
        },
        {
          "internalType": "string[]",
          "name": "_options",
          "type": "string[]"
        },
        {
          "internalType": "uint256",
          "name": "_commitDuration",
          "type": "uint256"
        },
        {
          "internalType": "uint256",
          "name": "_revealDuration",
          "type": "uint256"
        }
      ],
      "name": "createPoll",
      "outputs": [],
      "stateMutability": "nonpayable",
      "type": "function"
    },
    {
      "inputs": [],
      "name": "feeCollector",
      "outputs": [
        {
          "internalType": "address",
          "name": "",
          "type": "address"
        }
      ],
      "stateMutability": "view",
      "type": "function"
    },
    {
      "inputs": [
        {
          "internalType": "uint256",
          "name": "_pollId",
          "type": "uint256"
        }
      ],
      "name": "getPollOptions",
      "outputs": [
        {
          "internalType": "string[]",
          "name": "",
          "type": "string[]"
        }
      ],
      "stateMutability": "view",
      "type": "function"
    },
    {
      "inputs": [
        {
          "internalType": "uint256",
          "name": "_pollId",
          "type": "uint256"
        },
        {
          "internalType": "address",
          "name": "_voter",
          "type": "address"
        },
        {
          "internalType": "uint256",
          "name": "_commitmentIndex",
          "type": "uint256"
        }
      ],
      "name": "hasRevealed",
      "outputs": [
        {
          "internalType": "bool",
          "name": "",
          "type": "bool"
        }
      ],
      "stateMutability": "view",
      "type": "function"
    },
    {
      "inputs": [
        {
          "internalType": "address",
          "name": "_user",
          "type": "address"
        }
      ],
      "name": "isPremium",
      "outputs": [
        {
          "internalType": "bool",
          "name": "",
          "type": "bool"
        }
      ],
      "stateMutability": "view",
      "type": "function"
    },
    {
      "inputs": [],
      "name": "nextPollId",
      "outputs": [
        {
          "internalType": "uint256",
          "name": "",
          "type": "uint256"
        }
      ],
      "stateMutability": "view",
      "type": "function"
    },
    {
      "inputs": [
        {
          "internalType": "uint256",
          "name": "",
          "type": "uint256"
        },
        {
          "internalType": "uint256",
          "name": "",
          "type": "uint256"
        }
      ],
      "name": "optionTallies",
      "outputs": [
        {
          "internalType": "uint256",
          "name": "",
          "type": "uint256"
        }
      ],
      "stateMutability": "view",
      "type": "function"
    },
    {
      "inputs": [
        {
          "internalType": "uint256",
          "name": "",
          "type": "uint256"
        }
      ],
      "name": "polls",
      "outputs": [
        {
          "internalType": "uint256",
          "name": "id",
          "type": "uint256"
        },
        {
          "internalType": "string",
          "name": "question",
          "type": "string"
        },
        {
          "internalType": "uint256",
          "name": "commitEndTime",
          "type": "uint256"
        },
        {
          "internalType": "uint256",
          "name": "revealEndTime",
          "type": "uint256"
        },
        {
          "internalType": "uint256",
          "name": "totalStake",
          "type": "uint256"
        },
        {
          "internalType": "bool",
          "name": "resolved",
          "type": "bool"
        },
        {
          "internalType": "uint256",
          "name": "winningOptionIndex",
          "type": "uint256"
        },
        {
          "internalType": "address",
          "name": "creator",
          "type": "address"
        },
        {
          "internalType": "uint256",
          "name": "rewardPerWinner",
          "type": "uint256"
        }
      ],
      "stateMutability": "view",
      "type": "function"
    },
    {
      "inputs": [
        {
          "internalType": "address",
          "name": "",
          "type": "address"
        }
      ],
      "name": "premiumExpiry",
      "outputs": [
        {
          "internalType": "uint256",
          "name": "",
          "type": "uint256"
        }
      ],
      "stateMutability": "view",
      "type": "function"
    },
    {
      "inputs": [
        {
          "internalType": "uint256",
          "name": "_pollId",
          "type": "uint256"
        }
      ],
      "name": "resolvePoll",
      "outputs": [],
      "stateMutability": "nonpayable",
      "type": "function"
    },
    {
      "inputs": [
        {
          "internalType": "uint256",
          "name": "_pollId",
          "type": "uint256"
        },
        {
          "internalType": "uint256",
          "name": "_commitmentIndex",
          "type": "uint256"
        },
        {
          "internalType": "uint256",
          "name": "_optionIndex",
          "type": "uint256"
        },
        {
          "internalType": "bytes32",
          "name": "_salt",
          "type": "bytes32"
        }
      ],
      "name": "revealVote",
      "outputs": [],
      "stateMutability": "nonpayable",
      "type": "function"
    },
    {
      "inputs": [
        {
          "internalType": "uint256",
          "name": "",
          "type": "uint256"
        },
        {
          "internalType": "address",
          "name": "",
          "type": "address"
        },
        {
          "internalType": "uint256",
          "name": "",
          "type": "uint256"
        }
      ],
      "name": "rewardClaimed",
      "outputs": [
        {
          "internalType": "bool",
          "name": "",
          "type": "bool"
        }
      ],
      "stateMutability": "view",
      "type": "function"
    },
    {
      "inputs": [],
      "name": "usdToken",
      "outputs": [
        {
          "internalType": "contract IERC20",
          "name": "",
          "type": "address"
        }
      ],
      "stateMutability": "view",
      "type": "function"
    },
    {
      "inputs": [
        {
          "internalType": "uint256",
          "name": "",
          "type": "uint256"
        },
        {
          "internalType": "address",
          "name": "",
          "type": "address"
        },
        {
          "internalType": "uint256",
          "name": "",
          "type": "uint256"
        }
      ],
      "name": "votes",
      "outputs": [
        {
          "internalType": "uint256",
          "name": "",
          "type": "uint256"
        }
      ],
      "stateMutability": "view",
      "type": "function"
    }
  ],
  "bytecode": "0x60806040523480156200001157600080fd5b5060405162003bfe38038062003bfe83398181016040528101906200003791906200016b565b816000806101000a81548173ffffffffffffffffffffffffffffffffffffffff021916908373ffffffffffffffffffffffffffffffffffffffff16021790555033600860006101000a81548173ffffffffffffffffffffffffffffffffffffffff021916908373ffffffffffffffffffffffffffffffffffffffff16021790555080600960006101000a81548173ffffffffffffffffffffffffffffffffffffffff021916908373ffffffffffffffffffffffffffffffffffffffff1602179055505050620001b2565b600080fd5b600073ffffffffffffffffffffffffffffffffffffffff82169050919050565b6000620001338262000106565b9050919050565b620001458162000126565b81146200015157600080fd5b50565b60008151905062000165816200013a565b92915050565b6000806040838503121562000185576200018462000101565b5b6000620001958582860162000154565b9250506020620001a88582860162000154565b9150509250929050565b613a3c80620001c26000396000f3fe608060405234801561001057600080fd5b50600436106101585760003560e01c8063973a8bb1116100c3578063e91dde0e1161007c578063e91dde0e14610401578063f0f30fc81461041f578063f75627651461043d578063f851a4401461046d578063f897a22b1461048b578063faf5625f146104a957610158565b8063973a8bb1146103275780639da6918014610357578063ac2f007414610373578063b08461e6146103ab578063c415b95c146103c7578063e74fef37146103e557610158565b80636b36805c116101155780636b36805c1461024357806371192b171461025f578063742fe0d41461028f57806378310bca146102bf5780637a061a0c146102ef57806386bb8f371461030b57610158565b806309db62fa1461015d5780632b786571146101795780633dce3d03146101975780634bedab19146101b3578063517f5c34146101e3578063614223db14610213575b600080fd5b610177600480360381019061017291906124b2565b6104c7565b005b6101816109a4565b60405161018e919061253c565b60405180910390f35b6101b160048036038101906101ac9190612557565b6109aa565b005b6101cd60048036038101906101c89190612584565b610c19565b6040516101da919061253c565b60405180910390f35b6101fd60048036038101906101f891906125c4565b610c3e565b60405161020a9190612632565b60405180910390f35b61022d6004803603810190610228919061264d565b610cae565b60405161023a919061253c565b60405180910390f35b61025d600480360381019061025891906125c4565b610cc6565b005b610279600480360381019061027491906125c4565b61103d565b6040516102869190612632565b60405180910390f35b6102a960048036038101906102a4919061264d565b611079565b6040516102b69190612632565b60405180910390f35b6102d960048036038101906102d491906125c4565b6110c4565b6040516102e6919061253c565b60405180910390f35b610309600480360381019061030491906128a6565b6110f6565b005b61032560048036038101906103209190612584565b611260565b005b610341600480360381019061033c91906125c4565b6114fe565b60405161034e9190612954565b60405180910390f35b610371600480360381019061036c919061296f565b61153c565b005b61038d60048036038101906103889190612557565b6116c5565b6040516103a299989796959493929190612a3d565b60405180910390f35b6103c560048036038101906103c09190612ad1565b6117c8565b005b6103cf611bcc565b6040516103dc9190612b38565b60405180910390f35b6103ff60048036038101906103fa9190612557565b611bf2565b005b61040961200d565b604051610416919061253c565b60405180910390f35b610427612013565b604051610434919061253c565b60405180910390f35b61045760048036038101906104529190612557565b612018565b6040516104649190612c5f565b60405180910390f35b610475612107565b6040516104829190612b38565b60405180910390f35b61049361212d565b6040516104a09190612ce0565b60405180910390f35b6104b1612151565b6040516104be919061253c565b60405180910390f35b600860009054906101000a900473ffffffffffffffffffffffffffffffffffffffff1673ffffffffffffffffffffffffffffffffffffffff163373ffffffffffffffffffffffffffffffffffffffff1614610557576040517f08c379a000000000000000000000000000000000000000000000000000000000815260040161054e90612d47565b60405180910390fd5b61056084611079565b61059f576040517f08c379a000000000000000000000000000000000000000000000000000000000815260040161059690612db3565b60405180910390fd5b600060066000878152602001908152602001600020905080600301544210156105fd576040517f08c379a00000000000000000000000000000000000000000000000000000000081526004016105f490612e1f565b60405180910390fd5b80600401544210610643576040517f08c379a000000000000000000000000000000000000000000000000000000000815260040161063a90612e8b565b60405180910390fd5b836001600088815260200190815260200160002060008773ffffffffffffffffffffffffffffffffffffffff1673ffffffffffffffffffffffffffffffffffffffff16815260200190815260200160002080549050116106d8576040517f08c379a00000000000000000000000000000000000000000000000000000000081526004016106cf90612ef7565b60405180910390fd5b60006002600088815260200190815260200160002060008773ffffffffffffffffffffffffffffffffffffffff1673ffffffffffffffffffffffffffffffffffffffff1681526020019081526020016000206000868152602001908152602001600020541461077c576040517f08c379a000000000000000000000000000000000000000000000000000000000815260040161077390612f63565b60405180910390fd5b828160020180549050116107c5576040517f08c379a00000000000000000000000000000000000000000000000000000000081526004016107bc90612fcf565b60405180910390fd5b600083836040516020016107da929190613031565b6040516020818303038152906040528051906020012090506001600088815260200190815260200160002060008773ffffffffffffffffffffffffffffffffffffffff1673ffffffffffffffffffffffffffffffffffffffff16815260200190815260200160002085815481106108545761085361305d565b5b906000526020600020015481146108a0576040517f08c379a0000000000000000000000000000000000000000000000000000000008152600401610897906130d8565b60405180910390fd5b6001846108ad9190613127565b6002600089815260200190815260200160002060008873ffffffffffffffffffffffffffffffffffffffff1673ffffffffffffffffffffffffffffffffffffffff16815260200190815260200160002060008781526020019081526020016000208190555060036000888152602001908152602001600020600085815260200190815260200160002060008154809291906109479061315b565b91905055508573ffffffffffffffffffffffffffffffffffffffff16877fd5232b050e3221ade5a3653733191681ef3bde39c4530d87c9bb74004f99dadc86604051610993919061253c565b60405180910390a350505050505050565b60055481565b6000600782036109bd5760649050610a0b565b601e82036109cf5761012c9050610a0a565b6040517f08c379a0000000000000000000000000000000000000000000000000000000008152600401610a01906131ef565b60405180910390fd5b5b610a7a33600960009054906101000a900473ffffffffffffffffffffffffffffffffffffffff168360008054906101000a900473ffffffffffffffffffffffffffffffffffffffff1673ffffffffffffffffffffffffffffffffffffffff16612157909392919063ffffffff16565b42600760003373ffffffffffffffffffffffffffffffffffffffff1673ffffffffffffffffffffffffffffffffffffffff168152602001908152602001600020541115610b2a576201518082610ad0919061320f565b600760003373ffffffffffffffffffffffffffffffffffffffff1673ffffffffffffffffffffffffffffffffffffffff1681526020019081526020016000206000828254610b1e9190613127565b92505081905550610b88565b6201518082610b39919061320f565b42610b449190613127565b600760003373ffffffffffffffffffffffffffffffffffffffff1673ffffffffffffffffffffffffffffffffffffffff168152602001908152602001600020819055505b3373ffffffffffffffffffffffffffffffffffffffff167faac641193722e260ce312e714156cdc3510a4892fdb1b50ea84cb29a03418004600760003373ffffffffffffffffffffffffffffffffffffffff1673ffffffffffffffffffffffffffffffffffffffff16815260200190815260200160002054604051610c0d919061253c565b60405180910390a25050565b6003602052816000526040600020602052806000526040600020600091509150505481565b6000806002600086815260200190815260200160002060008573ffffffffffffffffffffffffffffffffffffffff1673ffffffffffffffffffffffffffffffffffffffff168152602001908152602001600020600084815260200190815260200160002054141590509392505050565b60076020528060005260406000206000915090505481565b600860009054906101000a900473ffffffffffffffffffffffffffffffffffffffff1673ffffffffffffffffffffffffffffffffffffffff163373ffffffffffffffffffffffffffffffffffffffff1614610d56576040517f08c379a0000000000000000000000000000000000000000000000000000000008152600401610d4d90612d47565b60405180910390fd5b610d5f82611079565b610d9e576040517f08c379a0000000000000000000000000000000000000000000000000000000008152600401610d9590612db3565b60405180910390fd5b60006006600085815260200190815260200160002090508060060160009054906101000a900460ff16610e06576040517f08c379a0000000000000000000000000000000000000000000000000000000008152600401610dfd9061329d565b60405180910390fd5b60018160070154610e179190613127565b6002600086815260200190815260200160002060008573ffffffffffffffffffffffffffffffffffffffff1673ffffffffffffffffffffffffffffffffffffffff16815260200190815260200160002060008481526020019081526020016000205414610eb9576040517f08c379a0000000000000000000000000000000000000000000000000000000008152600401610eb090613309565b60405180910390fd5b6004600085815260200190815260200160002060008473ffffffffffffffffffffffffffffffffffffffff1673ffffffffffffffffffffffffffffffffffffffff168152602001908152602001600020600083815260200190815260200160002060009054906101000a900460ff1615610f68576040517f08c379a0000000000000000000000000000000000000000000000000000000008152600401610f5f90613375565b60405180910390fd5b60008160090154905060016004600087815260200190815260200160002060008673ffffffffffffffffffffffffffffffffffffffff1673ffffffffffffffffffffffffffffffffffffffff168152602001908152602001600020600085815260200190815260200160002060006101000a81548160ff021916908315150217905550611036848260008054906101000a900473ffffffffffffffffffffffffffffffffffffffff1673ffffffffffffffffffffffffffffffffffffffff166121d99092919063ffffffff16565b5050505050565b6004602052826000526040600020602052816000526040600020602052806000526040600020600092509250509054906101000a900460ff1681565b600042600760008473ffffffffffffffffffffffffffffffffffffffff1673ffffffffffffffffffffffffffffffffffffffff16815260200190815260200160002054119050919050565b600260205282600052604060002060205281600052604060002060205280600052604060002060009250925050505481565b6110ff33611079565b61113e576040517f08c379a000000000000000000000000000000000000000000000000000000000815260040161113590613407565b60405180910390fd5b6000600560008154809291906111539061315b565b91905055905060006006600083815260200190815260200160002090508181600001819055508581600101908161118a9190613629565b50848160020190805190602001906111a39291906122fa565b5083426111b09190613127565b81600301819055508284426111c59190613127565b6111cf9190613127565b8160040181905550338160080160006101000a81548173ffffffffffffffffffffffffffffffffffffffff021916908373ffffffffffffffffffffffffffffffffffffffff160217905550817fc3ad3dd4f77bea708d7c21b918efa79c536b30c5048924662db7a2bd96f483168783600301546040516112509291906136fb565b60405180910390a2505050505050565b60006006600084815260200190815260200160002090508060060160009054906101000a900460ff166112c8576040517f08c379a00000000000000000000000000000000000000000000000000000000081526004016112bf9061329d565b60405180910390fd5b600181600701546112d99190613127565b6002600085815260200190815260200160002060003373ffffffffffffffffffffffffffffffffffffffff1673ffffffffffffffffffffffffffffffffffffffff1681526020019081526020016000206000848152602001908152602001600020541461137b576040517f08c379a000000000000000000000000000000000000000000000000000000000815260040161137290613777565b60405180910390fd5b6004600084815260200190815260200160002060003373ffffffffffffffffffffffffffffffffffffffff1673ffffffffffffffffffffffffffffffffffffffff168152602001908152602001600020600083815260200190815260200160002060009054906101000a900460ff161561142a576040517f08c379a000000000000000000000000000000000000000000000000000000000815260040161142190613375565b60405180910390fd5b60008160090154905060016004600086815260200190815260200160002060003373ffffffffffffffffffffffffffffffffffffffff1673ffffffffffffffffffffffffffffffffffffffff168152602001908152602001600020600085815260200190815260200160002060006101000a81548160ff0219169083151502179055506114f8338260008054906101000a900473ffffffffffffffffffffffffffffffffffffffff1673ffffffffffffffffffffffffffffffffffffffff166121d99092919063ffffffff16565b50505050565b6001602052826000526040600020602052816000526040600020818154811061152657600080fd5b9060005260206000200160009250925050505481565b600060066000848152602001908152602001600020905080600301544210611599576040517f08c379a0000000000000000000000000000000000000000000000000000000008152600401611590906137e3565b60405180910390fd5b6115e833306103e860008054906101000a900473ffffffffffffffffffffffffffffffffffffffff1673ffffffffffffffffffffffffffffffffffffffff16612157909392919063ffffffff16565b6103e88160050160008282546115fe9190613127565b925050819055506001600084815260200190815260200160002060003373ffffffffffffffffffffffffffffffffffffffff1673ffffffffffffffffffffffffffffffffffffffff1681526020019081526020016000208290806001815401808255809150506001900390600052602060002001600090919091909150553373ffffffffffffffffffffffffffffffffffffffff16837f3834a2c8ea101e1468b529270d35fbff0a12de32a5a7e5729b8b4dad6fb32c0160405160405180910390a3505050565b60066020528060005260406000206000915090508060000154908060010180546116ee90613456565b80601f016020809104026020016040519081016040528092919081815260200182805461171a90613456565b80156117675780601f1061173c57610100808354040283529160200191611767565b820191906000526020600020905b81548152906001019060200180831161174a57829003601f168201915b5050505050908060030154908060040154908060050154908060060160009054906101000a900460ff16908060070154908060080160009054906101000a900473ffffffffffffffffffffffffffffffffffffffff16908060090154905089565b60006006600086815260200190815260200160002090508060030154421015611826576040517f08c379a000000000000000000000000000000000000000000000000000000000815260040161181d90612e1f565b60405180910390fd5b8060040154421061186c576040517f08c379a000000000000000000000000000000000000000000000000000000000815260040161186390612e8b565b60405180910390fd5b836001600087815260200190815260200160002060003373ffffffffffffffffffffffffffffffffffffffff1673ffffffffffffffffffffffffffffffffffffffff1681526020019081526020016000208054905011611901576040517f08c379a00000000000000000000000000000000000000000000000000000000081526004016118f890612ef7565b60405180910390fd5b60006002600087815260200190815260200160002060003373ffffffffffffffffffffffffffffffffffffffff1673ffffffffffffffffffffffffffffffffffffffff168152602001908152602001600020600086815260200190815260200160002054146119a5576040517f08c379a000000000000000000000000000000000000000000000000000000000815260040161199c90612f63565b60405180910390fd5b828160020180549050116119ee576040517f08c379a00000000000000000000000000000000000000000000000000000000081526004016119e590612fcf565b60405180910390fd5b60008383604051602001611a03929190613031565b6040516020818303038152906040528051906020012090506001600087815260200190815260200160002060003373ffffffffffffffffffffffffffffffffffffffff1673ffffffffffffffffffffffffffffffffffffffff1681526020019081526020016000208581548110611a7d57611a7c61305d565b5b90600052602060002001548114611ac9576040517f08c379a0000000000000000000000000000000000000000000000000000000008152600401611ac0906130d8565b60405180910390fd5b600184611ad69190613127565b6002600088815260200190815260200160002060003373ffffffffffffffffffffffffffffffffffffffff1673ffffffffffffffffffffffffffffffffffffffff1681526020019081526020016000206000878152602001908152602001600020819055506003600087815260200190815260200160002060008581526020019081526020016000206000815480929190611b709061315b565b91905055503373ffffffffffffffffffffffffffffffffffffffff16867fd5232b050e3221ade5a3653733191681ef3bde39c4530d87c9bb74004f99dadc86604051611bbc919061253c565b60405180910390a3505050505050565b600960009054906101000a900473ffffffffffffffffffffffffffffffffffffffff1681565b60006006600083815260200190815260200160002090508060040154421015611c50576040517f08c379a0000000000000000000000000000000000000000000000000000000008152600401611c479061384f565b60405180910390fd5b8060060160009054906101000a900460ff1615611ca2576040517f08c379a0000000000000000000000000000000000000000000000000000000008152600401611c99906138bb565b60405180910390fd5b6000806000805b8460020180549050811015611d2057600060036000888152602001908152602001600020600083815260200190815260200160002054905084811115611cf85780945081935060009250611d12565b8481148015611d075750600085115b15611d1157600192505b5b508080600101915050611ca9565b50600083118015611d2f575080155b156120055781846007018190555060018460060160006101000a81548160ff0219169083151502179055506000846005015490506000806000600860009054906101000a900473ffffffffffffffffffffffffffffffffffffffff1673ffffffffffffffffffffffffffffffffffffffff168860080160009054906101000a900473ffffffffffffffffffffffffffffffffffffffff1673ffffffffffffffffffffffffffffffffffffffff1603611e7c576064601e85611df0919061320f565b611dfa919061390a565b92508284611e08919061393b565b9050611e77600960009054906101000a900473ffffffffffffffffffffffffffffffffffffffff168460008054906101000a900473ffffffffffffffffffffffffffffffffffffffff1673ffffffffffffffffffffffffffffffffffffffff166121d99092919063ffffffff16565b611fa8565b6064600585611e8b919061320f565b611e95919061390a565b92506064601985611ea6919061320f565b611eb0919061390a565b9150818385611ebf919061393b565b611ec9919061393b565b9050611f38600960009054906101000a900473ffffffffffffffffffffffffffffffffffffffff168460008054906101000a900473ffffffffffffffffffffffffffffffffffffffff1673ffffffffffffffffffffffffffffffffffffffff166121d99092919063ffffffff16565b611fa78860080160009054906101000a900473ffffffffffffffffffffffffffffffffffffffff168360008054906101000a900473ffffffffffffffffffffffffffffffffffffffff1673ffffffffffffffffffffffffffffffffffffffff166121d99092919063ffffffff16565b5b8681611fb4919061390a565b8860090181905550887f0a65a31222d4c537fe1231c104b70495998ef0979f26ccb3440810cf056d686f878a600501548a604051611ff49392919061396f565b60405180910390a250505050612006565b5b5050505050565b61012c81565b606481565b606060066000838152602001908152602001600020600201805480602002602001604051908101604052809291908181526020016000905b828210156120fc57838290600052602060002001805461206f90613456565b80601f016020809104026020016040519081016040528092919081815260200182805461209b90613456565b80156120e85780601f106120bd576101008083540402835291602001916120e8565b820191906000526020600020905b8154815290600101906020018083116120cb57829003601f168201915b505050505081526020019060010190612050565b505050509050919050565b600860009054906101000a900473ffffffffffffffffffffffffffffffffffffffff1681565b60008054906101000a900473ffffffffffffffffffffffffffffffffffffffff1681565b6103e881565b6121d3848573ffffffffffffffffffffffffffffffffffffffff166323b872dd86868660405160240161218c939291906139a6565b604051602081830303815290604052915060e01b6020820180517bffffffffffffffffffffffffffffffffffffffffffffffffffffffff8381831617835250505050612258565b50505050565b612253838473ffffffffffffffffffffffffffffffffffffffff1663a9059cbb858560405160240161220c9291906139dd565b604051602081830303815290604052915060e01b6020820180517bffffffffffffffffffffffffffffffffffffffffffffffffffffffff8381831617835250505050612258565b505050565b600080602060008451602086016000885af18061227b576040513d6000823e3d81fd5b3d9250600051915050600082146122965760018114156122b2565b60008473ffffffffffffffffffffffffffffffffffffffff163b145b156122f457836040517f5274afe70000000000000000000000000000000000000000000000000000000081526004016122eb9190612b38565b60405180910390fd5b50505050565b828054828255906000526020600020908101928215612342579160200282015b828111156123415782518290816123319190613629565b509160200191906001019061231a565b5b50905061234f9190612353565b5090565b5b80821115612373576000818161236a9190612377565b50600101612354565b5090565b50805461238390613456565b6000825580601f1061239557506123b4565b601f0160209004906000526020600020908101906123b391906123b7565b5b50565b5b808211156123d05760008160009055506001016123b8565b5090565b6000604051905090565b600080fd5b600080fd5b6000819050919050565b6123fb816123e8565b811461240657600080fd5b50565b600081359050612418816123f2565b92915050565b600073ffffffffffffffffffffffffffffffffffffffff82169050919050565b60006124498261241e565b9050919050565b6124598161243e565b811461246457600080fd5b50565b60008135905061247681612450565b92915050565b6000819050919050565b61248f8161247c565b811461249a57600080fd5b50565b6000813590506124ac81612486565b92915050565b600080600080600060a086880312156124ce576124cd6123de565b5b60006124dc88828901612409565b95505060206124ed88828901612467565b94505060406124fe88828901612409565b935050606061250f88828901612409565b92505060806125208882890161249d565b9150509295509295909350565b612536816123e8565b82525050565b6000602082019050612551600083018461252d565b92915050565b60006020828403121561256d5761256c6123de565b5b600061257b84828501612409565b91505092915050565b6000806040838503121561259b5761259a6123de565b5b60006125a985828601612409565b92505060206125ba85828601612409565b9150509250929050565b6000806000606084860312156125dd576125dc6123de565b5b60006125eb86828701612409565b93505060206125fc86828701612467565b925050604061260d86828701612409565b9150509250925092565b60008115159050919050565b61262c81612617565b82525050565b60006020820190506126476000830184612623565b92915050565b600060208284031215612663576126626123de565b5b600061267184828501612467565b91505092915050565b600080fd5b600080fd5b6000601f19601f8301169050919050565b7f4e487b7100000000000000000000000000000000000000000000000000000000600052604160045260246000fd5b6126cd82612684565b810181811067ffffffffffffffff821117156126ec576126eb612695565b5b80604052505050565b60006126ff6123d4565b905061270b82826126c4565b919050565b600067ffffffffffffffff82111561272b5761272a612695565b5b61273482612684565b9050602081019050919050565b82818337600083830152505050565b600061276361275e84612710565b6126f5565b90508281526020810184848401111561277f5761277e61267f565b5b61278a848285612741565b509392505050565b600082601f8301126127a7576127a661267a565b5b81356127b7848260208601612750565b91505092915050565b600067ffffffffffffffff8211156127db576127da612695565b5b602082029050602081019050919050565b600080fd5b60006128046127ff846127c0565b6126f5565b90508083825260208201905060208402830185811115612827576128266127ec565b5b835b8181101561286e57803567ffffffffffffffff81111561284c5761284b61267a565b5b8086016128598982612792565b85526020850194505050602081019050612829565b5050509392505050565b600082601f83011261288d5761288c61267a565b5b813561289d8482602086016127f1565b91505092915050565b600080600080608085870312156128c0576128bf6123de565b5b600085013567ffffffffffffffff8111156128de576128dd6123e3565b5b6128ea87828801612792565b945050602085013567ffffffffffffffff81111561290b5761290a6123e3565b5b61291787828801612878565b935050604061292887828801612409565b925050606061293987828801612409565b91505092959194509250565b61294e8161247c565b82525050565b60006020820190506129696000830184612945565b92915050565b60008060408385031215612986576129856123de565b5b600061299485828601612409565b92505060206129a58582860161249d565b9150509250929050565b600081519050919050565b600082825260208201905092915050565b60005b838110156129e95780820151818401526020810190506129ce565b60008484015250505050565b6000612a00826129af565b612a0a81856129ba565b9350612a1a8185602086016129cb565b612a2381612684565b840191505092915050565b612a378161243e565b82525050565b600061012082019050612a53600083018c61252d565b8181036020830152612a65818b6129f5565b9050612a74604083018a61252d565b612a81606083018961252d565b612a8e608083018861252d565b612a9b60a0830187612623565b612aa860c083018661252d565b612ab560e0830185612a2e565b612ac361010083018461252d565b9a9950505050505050505050565b60008060008060808587031215612aeb57612aea6123de565b5b6000612af987828801612409565b9450506020612b0a87828801612409565b9350506040612b1b87828801612409565b9250506060612b2c8782880161249d565b91505092959194509250565b6000602082019050612b4d6000830184612a2e565b92915050565b600081519050919050565b600082825260208201905092915050565b6000819050602082019050919050565b600082825260208201905092915050565b6000612b9b826129af565b612ba58185612b7f565b9350612bb58185602086016129cb565b612bbe81612684565b840191505092915050565b6000612bd58383612b90565b905092915050565b6000602082019050919050565b6000612bf582612b53565b612bff8185612b5e565b935083602082028501612c1185612b6f565b8060005b85811015612c4d5784840389528151612c2e8582612bc9565b9450612c3983612bdd565b925060208a01995050600181019050612c15565b50829750879550505050505092915050565b60006020820190508181036000830152612c798184612bea565b905092915050565b6000819050919050565b6000612ca6612ca1612c9c8461241e565b612c81565b61241e565b9050919050565b6000612cb882612c8b565b9050919050565b6000612cca82612cad565b9050919050565b612cda81612cbf565b82525050565b6000602082019050612cf56000830184612cd1565b92915050565b7f4e6f742061646d696e0000000000000000000000000000000000000000000000600082015250565b6000612d316009836129ba565b9150612d3c82612cfb565b602082019050919050565b60006020820190508181036000830152612d6081612d24565b9050919050565b7f55736572206973206e6f74207072656d69756d00000000000000000000000000600082015250565b6000612d9d6013836129ba565b9150612da882612d67565b602082019050919050565b60006020820190508181036000830152612dcc81612d90565b9050919050565b7f436f6d6d6974207068617365206e6f7420656e64656400000000000000000000600082015250565b6000612e096016836129ba565b9150612e1482612dd3565b602082019050919050565b60006020820190508181036000830152612e3881612dfc565b9050919050565b7f52657665616c20706861736520656e6465640000000000000000000000000000600082015250565b6000612e756012836129ba565b9150612e8082612e3f565b602082019050919050565b60006020820190508181036000830152612ea481612e68565b9050919050565b7f496e76616c696420636f6d6d69746d656e7420696e6465780000000000000000600082015250565b6000612ee16018836129ba565b9150612eec82612eab565b602082019050919050565b60006020820190508181036000830152612f1081612ed4565b9050919050565b7f416c72656164792072657665616c656400000000000000000000000000000000600082015250565b6000612f4d6010836129ba565b9150612f5882612f17565b602082019050919050565b60006020820190508181036000830152612f7c81612f40565b9050919050565b7f496e76616c6964206f7074696f6e20696e646578000000000000000000000000600082015250565b6000612fb96014836129ba565b9150612fc482612f83565b602082019050919050565b60006020820190508181036000830152612fe881612fac565b9050919050565b6000819050919050565b61300a613005826123e8565b612fef565b82525050565b6000819050919050565b61302b6130268261247c565b613010565b82525050565b600061303d8285612ff9565b60208201915061304d828461301a565b6020820191508190509392505050565b7f4e487b7100000000000000000000000000000000000000000000000000000000600052603260045260246000fd5b7f48617368206d69736d6174636800000000000000000000000000000000000000600082015250565b60006130c2600d836129ba565b91506130cd8261308c565b602082019050919050565b600060208201905081810360008301526130f1816130b5565b9050919050565b7f4e487b7100000000000000000000000000000000000000000000000000000000600052601160045260246000fd5b6000613132826123e8565b915061313d836123e8565b9250828201905080821115613155576131546130f8565b5b92915050565b6000613166826123e8565b91507fffffffffffffffffffffffffffffffffffffffffffffffffffffffffffffffff8203613198576131976130f8565b5b600182019050919050565b7f496e76616c6964206475726174696f6e3a205573652037206f72203330000000600082015250565b60006131d9601d836129ba565b91506131e4826131a3565b602082019050919050565b60006020820190508181036000830152613208816131cc565b9050919050565b600061321a826123e8565b9150613225836123e8565b9250828202613233816123e8565b9150828204841483151761324a576132496130f8565b5b5092915050565b7f506f6c6c206e6f74207265736f6c766564000000000000000000000000000000600082015250565b60006132876011836129ba565b915061329282613251565b602082019050919050565b600060208201905081810360008301526132b68161327a565b9050919050565b7f5573657220646964206e6f742077696e00000000000000000000000000000000600082015250565b60006132f36010836129ba565b91506132fe826132bd565b602082019050919050565b60006020820190508181036000830152613322816132e6565b9050919050565b7f416c726561647920636c61696d65640000000000000000000000000000000000600082015250565b600061335f600f836129ba565b915061336a82613329565b602082019050919050565b6000602082019050818103600083015261338e81613352565b9050919050565b7f4f6e6c79207072656d69756d2075736572732063616e2063726561746520706f60008201527f6c6c730000000000000000000000000000000000000000000000000000000000602082015250565b60006133f16023836129ba565b91506133fc82613395565b604082019050919050565b60006020820190508181036000830152613420816133e4565b9050919050565b7f4e487b7100000000000000000000000000000000000000000000000000000000600052602260045260246000fd5b6000600282049050600182168061346e57607f821691505b60208210810361348157613480613427565b5b50919050565b60008190508160005260206000209050919050565b60006020601f8301049050919050565b600082821b905092915050565b6000600883026134e97fffffffffffffffffffffffffffffffffffffffffffffffffffffffffffffffff826134ac565b6134f386836134ac565b95508019841693508086168417925050509392505050565b600061352661352161351c846123e8565b612c81565b6123e8565b9050919050565b6000819050919050565b6135408361350b565b61355461354c8261352d565b8484546134b9565b825550505050565b600090565b61356961355c565b613574818484613537565b505050565b5b818110156135985761358d600082613561565b60018101905061357a565b5050565b601f8211156135dd576135ae81613487565b6135b78461349c565b810160208510156135c6578190505b6135da6135d28561349c565b830182613579565b50505b505050565b600082821c905092915050565b6000613600600019846008026135e2565b1980831691505092915050565b600061361983836135ef565b9150826002028217905092915050565b613632826129af565b67ffffffffffffffff81111561364b5761364a612695565b5b6136558254613456565b61366082828561359c565b600060209050601f8311600181146136935760008415613681578287015190505b61368b858261360d565b8655506136f3565b601f1984166136a186613487565b60005b828110156136c9578489015182556001820191506020850194506020810190506136a4565b868310156136e657848901516136e2601f8916826135ef565b8355505b6001600288020188555050505b505050505050565b6000604082019050818103600083015261371581856129f5565b9050613724602083018461252d565b9392505050565b7f596f7520646964206e6f742077696e206174207468697320696e646578000000600082015250565b6000613761601d836129ba565b915061376c8261372b565b602082019050919050565b6000602082019050818103600083015261379081613754565b9050919050565b7f436f6d6d697420706861736520656e6465640000000000000000000000000000600082015250565b60006137cd6012836129ba565b91506137d882613797565b602082019050919050565b600060208201905081810360008301526137fc816137c0565b9050919050565b7f52657665616c207068617365206e6f7420656e64656400000000000000000000600082015250565b60006138396016836129ba565b915061384482613803565b602082019050919050565b600060208201905081810360008301526138688161382c565b9050919050565b7f416c7265616479207265736f6c76656400000000000000000000000000000000600082015250565b60006138a56010836129ba565b91506138b08261386f565b602082019050919050565b600060208201905081810360008301526138d481613898565b9050919050565b7f4e487b7100000000000000000000000000000000000000000000000000000000600052601260045260246000fd5b6000613915826123e8565b9150613920836123e8565b9250826139305761392f6138db565b5b828204905092915050565b6000613946826123e8565b9150613951836123e8565b9250828203905081811115613969576139686130f8565b5b92915050565b6000606082019050613984600083018661252d565b613991602083018561252d565b61399e604083018461252d565b949350505050565b60006060820190506139bb6000830186612a2e565b6139c86020830185612a2e565b6139d5604083018461252d565b949350505050565b60006040820190506139f26000830185612a2e565b6139ff602083018461252d565b939250505056fea264697066735822122064d9a7b4227a608edba9f8eb6f578c774df807bfa16c8189b191b13de060315164736f6c63430008180033",
  "linkReferences": {},
  "deployedLinkReferences": {}
}