{
  "_format": "hh-sol-artifact-1",
  "contractName": "OraclePoll",
  "sourceName": "contracts/OraclePoll.sol",
  "abi": [
    {
      "inputs": [
        {
          "internalType": "address",
          "name": "_usdToken",
          "type": "address"
        }
      ],
      "stateMutability": "nonpayable",
      "type": "constructor"
    },
    {
      "inputs": [
        {
          "internalType": "address",
          "name": "token",
          "type": "address"
        }
      ],
      "name": "SafeERC20FailedOperation",
      "type": "error"
    },
    {
      "anonymous": false,
      "inputs": [
        {
          "indexed": true,
          "internalType": "uint256",
          "name": "pollId",
          "type": "uint256"
        },
        {
          "indexed": false,
          "internalType": "string",
          "name": "question",
          "type": "string"
        },
        {
          "indexed": false,
          "internalType": "uint256",
          "name": "commitEndTime",
          "type": "uint256"
        }
      ],
      "name": "PollCreated",
      "type": "event"
    },
    {
      "anonymous": false,
      "inputs": [
        {
          "indexed": true,
          "internalType": "uint256",
          "name": "pollId",
          "type": "uint256"
        },
        {
          "indexed": false,
          "internalType": "uint256",
          "name": "winningOptionIndex",
          "type": "uint256"
        },
        {
          "indexed": false,
          "internalType": "uint256",
          "name": "totalStake",
          "type": "uint256"
        },
        {
          "indexed": false,
          "internalType": "uint256",
          "name": "winnerCount",
          "type": "uint256"
        }
      ],
      "name": "PollResolved",
      "type": "event"
    },
    {
      "anonymous": false,
      "inputs": [
        {
          "indexed": true,
          "internalType": "address",
          "name": "user",
          "type": "address"
        }
      ],
      "name": "PremiumPurchased",
      "type": "event"
    },
    {
      "anonymous": false,
      "inputs": [
        {
          "indexed": true,
          "internalType": "uint256",
          "name": "pollId",
          "type": "uint256"
        },
        {
          "indexed": true,
          "internalType": "address",
          "name": "voter",
          "type": "address"
        }
      ],
      "name": "VoteCommitted",
      "type": "event"
    },
    {
      "anonymous": false,
      "inputs": [
        {
          "indexed": true,
          "internalType": "uint256",
          "name": "pollId",
          "type": "uint256"
        },
        {
          "indexed": true,
          "internalType": "address",
          "name": "voter",
          "type": "address"
        },
        {
          "indexed": false,
          "internalType": "uint256",
          "name": "optionIndex",
          "type": "uint256"
        }
      ],
      "name": "VoteRevealed",
      "type": "event"
    },
    {
      "inputs": [],
      "name": "MEMBERSHIP_COST",
      "outputs": [
        {
          "internalType": "uint256",
          "name": "",
          "type": "uint256"
        }
      ],
      "stateMutability": "view",
      "type": "function"
    },
    {
      "inputs": [],
      "name": "STAKE_AMOUNT",
      "outputs": [
        {
          "internalType": "uint256",
          "name": "",
          "type": "uint256"
        }
      ],
      "stateMutability": "view",
      "type": "function"
    },
    {
      "inputs": [],
      "name": "admin",
      "outputs": [
        {
          "internalType": "address",
          "name": "",
          "type": "address"
        }
      ],
      "stateMutability": "view",
      "type": "function"
    },
    {
      "inputs": [
        {
          "internalType": "uint256",
          "name": "_pollId",
          "type": "uint256"
        },
        {
          "internalType": "address",
          "name": "_voter",
          "type": "address"
        },
        {
          "internalType": "uint256",
          "name": "_commitmentIndex",
          "type": "uint256"
        }
      ],
      "name": "adminClaimReward",
      "outputs": [],
      "stateMutability": "nonpayable",
      "type": "function"
    },
    {
      "inputs": [
        {
          "internalType": "uint256",
          "name": "_pollId",
          "type": "uint256"
        },
        {
          "internalType": "address",
          "name": "_voter",
          "type": "address"
        },
        {
          "internalType": "uint256",
          "name": "_commitmentIndex",
          "type": "uint256"
        },
        {
          "internalType": "uint256",
          "name": "_optionIndex",
          "type": "uint256"
        },
        {
          "internalType": "bytes32",
          "name": "_salt",
          "type": "bytes32"
        }
      ],
      "name": "adminRevealVote",
      "outputs": [],
      "stateMutability": "nonpayable",
      "type": "function"
    },
    {
      "inputs": [],
      "name": "buyPremium",
      "outputs": [],
      "stateMutability": "nonpayable",
      "type": "function"
    },
    {
      "inputs": [
        {
          "internalType": "uint256",
          "name": "_pollId",
          "type": "uint256"
        },
        {
          "internalType": "uint256",
          "name": "_commitmentIndex",
          "type": "uint256"
        }
      ],
      "name": "claimReward",
      "outputs": [],
      "stateMutability": "nonpayable",
      "type": "function"
    },
    {
      "inputs": [
        {
          "internalType": "uint256",
          "name": "_pollId",
          "type": "uint256"
        },
        {
          "internalType": "bytes32",
          "name": "_voteHash",
          "type": "bytes32"
        }
      ],
      "name": "commitVote",
      "outputs": [],
      "stateMutability": "nonpayable",
      "type": "function"
    },
    {
      "inputs": [
        {
          "internalType": "uint256",
          "name": "",
          "type": "uint256"
        },
        {
          "internalType": "address",
          "name": "",
          "type": "address"
        },
        {
          "internalType": "uint256",
          "name": "",
          "type": "uint256"
        }
      ],
      "name": "commitments",
      "outputs": [
        {
          "internalType": "bytes32",
          "name": "",
          "type": "bytes32"
        }
      ],
      "stateMutability": "view",
      "type": "function"
    },
    {
      "inputs": [
        {
          "internalType": "string",
          "name": "_question",
          "type": "string"
        },
        {
          "internalType": "string[]",
          "name": "_options",
          "type": "string[]"
        },
        {
          "internalType": "uint256",
          "name": "_commitDuration",
          "type": "uint256"
        },
        {
          "internalType": "uint256",
          "name": "_revealDuration",
          "type": "uint256"
        }
      ],
      "name": "createPoll",
      "outputs": [],
      "stateMutability": "nonpayable",
      "type": "function"
    },
    {
      "inputs": [
        {
          "internalType": "uint256",
          "name": "_pollId",
          "type": "uint256"
        }
      ],
      "name": "getPollOptions",
      "outputs": [
        {
          "internalType": "string[]",
          "name": "",
          "type": "string[]"
        }
      ],
      "stateMutability": "view",
      "type": "function"
    },
    {
      "inputs": [
        {
          "internalType": "uint256",
          "name": "_pollId",
          "type": "uint256"
        },
        {
          "internalType": "address",
          "name": "_voter",
          "type": "address"
        },
        {
          "internalType": "uint256",
          "name": "_commitmentIndex",
          "type": "uint256"
        }
      ],
      "name": "hasRevealed",
      "outputs": [
        {
          "internalType": "bool",
          "name": "",
          "type": "bool"
        }
      ],
      "stateMutability": "view",
      "type": "function"
    },
    {
      "inputs": [
        {
          "internalType": "address",
          "name": "",
          "type": "address"
        }
      ],
      "name": "isPremium",
      "outputs": [
        {
          "internalType": "bool",
          "name": "",
          "type": "bool"
        }
      ],
      "stateMutability": "view",
      "type": "function"
    },
    {
      "inputs": [],
      "name": "nextPollId",
      "outputs": [
        {
          "internalType": "uint256",
          "name": "",
          "type": "uint256"
        }
      ],
      "stateMutability": "view",
      "type": "function"
    },
    {
      "inputs": [
        {
          "internalType": "uint256",
          "name": "",
          "type": "uint256"
        },
        {
          "internalType": "uint256",
          "name": "",
          "type": "uint256"
        }
      ],
      "name": "optionTallies",
      "outputs": [
        {
          "internalType": "uint256",
          "name": "",
          "type": "uint256"
        }
      ],
      "stateMutability": "view",
      "type": "function"
    },
    {
      "inputs": [
        {
          "internalType": "uint256",
          "name": "",
          "type": "uint256"
        }
      ],
      "name": "polls",
      "outputs": [
        {
          "internalType": "uint256",
          "name": "id",
          "type": "uint256"
        },
        {
          "internalType": "string",
          "name": "question",
          "type": "string"
        },
        {
          "internalType": "uint256",
          "name": "commitEndTime",
          "type": "uint256"
        },
        {
          "internalType": "uint256",
          "name": "revealEndTime",
          "type": "uint256"
        },
        {
          "internalType": "uint256",
          "name": "totalStake",
          "type": "uint256"
        },
        {
          "internalType": "bool",
          "name": "resolved",
          "type": "bool"
        },
        {
          "internalType": "uint256",
          "name": "winningOptionIndex",
          "type": "uint256"
        }
      ],
      "stateMutability": "view",
      "type": "function"
    },
    {
      "inputs": [
        {
          "internalType": "uint256",
          "name": "_pollId",
          "type": "uint256"
        }
      ],
      "name": "resolvePoll",
      "outputs": [],
      "stateMutability": "nonpayable",
      "type": "function"
    },
    {
      "inputs": [
        {
          "internalType": "uint256",
          "name": "_pollId",
          "type": "uint256"
        },
        {
          "internalType": "uint256",
          "name": "_commitmentIndex",
          "type": "uint256"
        },
        {
          "internalType": "uint256",
          "name": "_optionIndex",
          "type": "uint256"
        },
        {
          "internalType": "bytes32",
          "name": "_salt",
          "type": "bytes32"
        }
      ],
      "name": "revealVote",
      "outputs": [],
      "stateMutability": "nonpayable",
      "type": "function"
    },
    {
      "inputs": [
        {
          "internalType": "uint256",
          "name": "",
          "type": "uint256"
        },
        {
          "internalType": "address",
          "name": "",
          "type": "address"
        },
        {
          "internalType": "uint256",
          "name": "",
          "type": "uint256"
        }
      ],
      "name": "rewardClaimed",
      "outputs": [
        {
          "internalType": "bool",
          "name": "",
          "type": "bool"
        }
      ],
      "stateMutability": "view",
      "type": "function"
    },
    {
      "inputs": [],
      "name": "usdToken",
      "outputs": [
        {
          "internalType": "contract IERC20",
          "name": "",
          "type": "address"
        }
      ],
      "stateMutability": "view",
      "type": "function"
    },
    {
      "inputs": [
        {
          "internalType": "uint256",
          "name": "",
          "type": "uint256"
        },
        {
          "internalType": "address",
          "name": "",
          "type": "address"
        },
        {
          "internalType": "uint256",
          "name": "",
          "type": "uint256"
        }
      ],
      "name": "votes",
      "outputs": [
        {
          "internalType": "uint256",
          "name": "",
          "type": "uint256"
        }
      ],
      "stateMutability": "view",
      "type": "function"
    }
  ],
  "bytecode": "0x60806040523480156200001157600080fd5b506040516200379038038062003790833981810160405281019062000037919062000129565b806000806101000a81548173ffffffffffffffffffffffffffffffffffffffff021916908373ffffffffffffffffffffffffffffffffffffffff16021790555033600860006101000a81548173ffffffffffffffffffffffffffffffffffffffff021916908373ffffffffffffffffffffffffffffffffffffffff160217905550506200015b565b600080fd5b600073ffffffffffffffffffffffffffffffffffffffff82169050919050565b6000620000f182620000c4565b9050919050565b6200010381620000e4565b81146200010f57600080fd5b50565b6000815190506200012381620000f8565b92915050565b600060208284031215620001425762000141620000bf565b5b6000620001528482850162000112565b91505092915050565b613625806200016b6000396000f3fe608060405234801561001057600080fd5b50600436106101375760003560e01c80637a061a0c116100b8578063b08461e61161007c578063b08461e614610364578063e74fef3714610380578063f75627651461039c578063f851a440146103cc578063f897a22b146103ea578063faf5625f1461040857610137565b80637a061a0c146102aa57806386bb8f37146102c6578063973a8bb1146102e25780639da6918014610312578063ac2f00741461032e57610137565b8063517f5c34116100ff578063517f5c34146101ce5780636b36805c146101fe57806371192b171461021a578063742fe0d41461024a57806378310bca1461027a57610137565b806309db62fa1461013c5780632b786571146101585780633af1bc40146101765780634bedab19146101805780634e9dd581146101b0575b600080fd5b6101566004803603810190610151919061212f565b610426565b005b610160610947565b60405161016d91906121b9565b60405180910390f35b61017e61094d565b005b61019a600480360381019061019591906121d4565b610a5a565b6040516101a791906121b9565b60405180910390f35b6101b8610a7f565b6040516101c591906121b9565b60405180910390f35b6101e860048036038101906101e39190612214565b610a84565b6040516101f59190612282565b60405180910390f35b61021860048036038101906102139190612214565b610af4565b005b610234600480360381019061022f9190612214565b610f2b565b6040516102419190612282565b60405180910390f35b610264600480360381019061025f919061229d565b610f67565b6040516102719190612282565b60405180910390f35b610294600480360381019061028f9190612214565b610f87565b6040516102a191906121b9565b60405180910390f35b6102c460048036038101906102bf91906124f6565b610fb9565b005b6102e060048036038101906102db91906121d4565b611124565b005b6102fc60048036038101906102f79190612214565b61143e565b60405161030991906125a4565b60405180910390f35b61032c600480360381019061032791906125bf565b61147c565b005b610348600480360381019061034391906125ff565b611605565b60405161035b97969594939291906126ab565b60405180910390f35b61037e60048036038101906103799190612721565b6116dc565b005b61039a600480360381019061039591906125ff565b611ae0565b005b6103b660048036038101906103b191906125ff565b611c95565b6040516103c39190612894565b60405180910390f35b6103d4611d84565b6040516103e191906128c5565b60405180910390f35b6103f2611daa565b6040516103ff919061293f565b60405180910390f35b610410611dce565b60405161041d91906121b9565b60405180910390f35b600860009054906101000a900473ffffffffffffffffffffffffffffffffffffffff1673ffffffffffffffffffffffffffffffffffffffff163373ffffffffffffffffffffffffffffffffffffffff16146104b6576040517f08c379a00000000000000000000000000000000000000000000000000000000081526004016104ad906129a6565b60405180910390fd5b600760008573ffffffffffffffffffffffffffffffffffffffff1673ffffffffffffffffffffffffffffffffffffffff16815260200190815260200160002060009054906101000a900460ff16610542576040517f08c379a000000000000000000000000000000000000000000000000000000000815260040161053990612a12565b60405180910390fd5b600060066000878152602001908152602001600020905080600301544210156105a0576040517f08c379a000000000000000000000000000000000000000000000000000000000815260040161059790612a7e565b60405180910390fd5b806004015442106105e6576040517f08c379a00000000000000000000000000000000000000000000000000000000081526004016105dd90612aea565b60405180910390fd5b836001600088815260200190815260200160002060008773ffffffffffffffffffffffffffffffffffffffff1673ffffffffffffffffffffffffffffffffffffffff168152602001908152602001600020805490501161067b576040517f08c379a000000000000000000000000000000000000000000000000000000000815260040161067290612b56565b60405180910390fd5b60006002600088815260200190815260200160002060008773ffffffffffffffffffffffffffffffffffffffff1673ffffffffffffffffffffffffffffffffffffffff1681526020019081526020016000206000868152602001908152602001600020541461071f576040517f08c379a000000000000000000000000000000000000000000000000000000000815260040161071690612bc2565b60405180910390fd5b82816002018054905011610768576040517f08c379a000000000000000000000000000000000000000000000000000000000815260040161075f90612c2e565b60405180910390fd5b6000838360405160200161077d929190612c90565b6040516020818303038152906040528051906020012090506001600088815260200190815260200160002060008773ffffffffffffffffffffffffffffffffffffffff1673ffffffffffffffffffffffffffffffffffffffff16815260200190815260200160002085815481106107f7576107f6612cbc565b5b90600052602060002001548114610843576040517f08c379a000000000000000000000000000000000000000000000000000000000815260040161083a90612d37565b60405180910390fd5b6001846108509190612d86565b6002600089815260200190815260200160002060008873ffffffffffffffffffffffffffffffffffffffff1673ffffffffffffffffffffffffffffffffffffffff16815260200190815260200160002060008781526020019081526020016000208190555060036000888152602001908152602001600020600085815260200190815260200160002060008154809291906108ea90612dba565b91905055508573ffffffffffffffffffffffffffffffffffffffff16877fd5232b050e3221ade5a3653733191681ef3bde39c4530d87c9bb74004f99dadc8660405161093691906121b9565b60405180910390a350505050505050565b60055481565b6109bd33600860009054906101000a900473ffffffffffffffffffffffffffffffffffffffff16606460008054906101000a900473ffffffffffffffffffffffffffffffffffffffff1673ffffffffffffffffffffffffffffffffffffffff16611dd4909392919063ffffffff16565b6001600760003373ffffffffffffffffffffffffffffffffffffffff1673ffffffffffffffffffffffffffffffffffffffff16815260200190815260200160002060006101000a81548160ff0219169083151502179055503373ffffffffffffffffffffffffffffffffffffffff167f8635c858710dee3b9bb5e5bc7fcc805c455795162aa5b74dd4a508961a36032360405160405180910390a2565b6003602052816000526040600020602052806000526040600020600091509150505481565b606481565b6000806002600086815260200190815260200160002060008573ffffffffffffffffffffffffffffffffffffffff1673ffffffffffffffffffffffffffffffffffffffff168152602001908152602001600020600084815260200190815260200160002054141590509392505050565b600860009054906101000a900473ffffffffffffffffffffffffffffffffffffffff1673ffffffffffffffffffffffffffffffffffffffff163373ffffffffffffffffffffffffffffffffffffffff1614610b84576040517f08c379a0000000000000000000000000000000000000000000000000000000008152600401610b7b906129a6565b60405180910390fd5b600760008373ffffffffffffffffffffffffffffffffffffffff1673ffffffffffffffffffffffffffffffffffffffff16815260200190815260200160002060009054906101000a900460ff16610c10576040517f08c379a0000000000000000000000000000000000000000000000000000000008152600401610c0790612a12565b60405180910390fd5b60006006600085815260200190815260200160002090508060060160009054906101000a900460ff16610c78576040517f08c379a0000000000000000000000000000000000000000000000000000000008152600401610c6f90612e4e565b60405180910390fd5b60018160070154610c899190612d86565b6002600086815260200190815260200160002060008573ffffffffffffffffffffffffffffffffffffffff1673ffffffffffffffffffffffffffffffffffffffff16815260200190815260200160002060008481526020019081526020016000205414610d2b576040517f08c379a0000000000000000000000000000000000000000000000000000000008152600401610d2290612eba565b60405180910390fd5b6004600085815260200190815260200160002060008473ffffffffffffffffffffffffffffffffffffffff1673ffffffffffffffffffffffffffffffffffffffff168152602001908152602001600020600083815260200190815260200160002060009054906101000a900460ff1615610dda576040517f08c379a0000000000000000000000000000000000000000000000000000000008152600401610dd190612f26565b60405180910390fd5b60006003600086815260200190815260200160002060008360070154815260200190815260200160002054905060008111610e4a576040517f08c379a0000000000000000000000000000000000000000000000000000000008152600401610e4190612f92565b60405180910390fd5b6000818360050154610e5c9190612fe1565b905060016004600088815260200190815260200160002060008773ffffffffffffffffffffffffffffffffffffffff1673ffffffffffffffffffffffffffffffffffffffff168152602001908152602001600020600086815260200190815260200160002060006101000a81548160ff021916908315150217905550610f23858260008054906101000a900473ffffffffffffffffffffffffffffffffffffffff1673ffffffffffffffffffffffffffffffffffffffff16611e569092919063ffffffff16565b505050505050565b6004602052826000526040600020602052816000526040600020602052806000526040600020600092509250509054906101000a900460ff1681565b60076020528060005260406000206000915054906101000a900460ff1681565b600260205282600052604060002060205281600052604060002060205280600052604060002060009250925050505481565b600760003373ffffffffffffffffffffffffffffffffffffffff1673ffffffffffffffffffffffffffffffffffffffff16815260200190815260200160002060009054906101000a900460ff16611045576040517f08c379a000000000000000000000000000000000000000000000000000000000815260040161103c90613084565b60405180910390fd5b60006005600081548092919061105a90612dba565b91905055905060006006600083815260200190815260200160002090508181600001819055508581600101908161109191906132a6565b50848160020190805190602001906110aa929190611f77565b5083426110b79190612d86565b81600301819055508284426110cc9190612d86565b6110d69190612d86565b8160040181905550817fc3ad3dd4f77bea708d7c21b918efa79c536b30c5048924662db7a2bd96f48316878360030154604051611114929190613378565b60405180910390a2505050505050565b60006006600084815260200190815260200160002090508060060160009054906101000a900460ff1661118c576040517f08c379a000000000000000000000000000000000000000000000000000000000815260040161118390612e4e565b60405180910390fd5b6001816007015461119d9190612d86565b6002600085815260200190815260200160002060003373ffffffffffffffffffffffffffffffffffffffff1673ffffffffffffffffffffffffffffffffffffffff1681526020019081526020016000206000848152602001908152602001600020541461123f576040517f08c379a0000000000000000000000000000000000000000000000000000000008152600401611236906133f4565b60405180910390fd5b6004600084815260200190815260200160002060003373ffffffffffffffffffffffffffffffffffffffff1673ffffffffffffffffffffffffffffffffffffffff168152602001908152602001600020600083815260200190815260200160002060009054906101000a900460ff16156112ee576040517f08c379a00000000000000000000000000000000000000000000000000000000081526004016112e590612f26565b60405180910390fd5b6000600360008581526020019081526020016000206000836007015481526020019081526020016000205490506000811161135e576040517f08c379a000000000000000000000000000000000000000000000000000000000815260040161135590612f92565b60405180910390fd5b60008183600501546113709190612fe1565b905060016004600087815260200190815260200160002060003373ffffffffffffffffffffffffffffffffffffffff1673ffffffffffffffffffffffffffffffffffffffff168152602001908152602001600020600086815260200190815260200160002060006101000a81548160ff021916908315150217905550611437338260008054906101000a900473ffffffffffffffffffffffffffffffffffffffff1673ffffffffffffffffffffffffffffffffffffffff16611e569092919063ffffffff16565b5050505050565b6001602052826000526040600020602052816000526040600020818154811061146657600080fd5b9060005260206000200160009250925050505481565b6000600660008481526020019081526020016000209050806003015442106114d9576040517f08c379a00000000000000000000000000000000000000000000000000000000081526004016114d090613460565b60405180910390fd5b61152833306103e860008054906101000a900473ffffffffffffffffffffffffffffffffffffffff1673ffffffffffffffffffffffffffffffffffffffff16611dd4909392919063ffffffff16565b6103e881600501600082825461153e9190612d86565b925050819055506001600084815260200190815260200160002060003373ffffffffffffffffffffffffffffffffffffffff1673ffffffffffffffffffffffffffffffffffffffff1681526020019081526020016000208290806001815401808255809150506001900390600052602060002001600090919091909150553373ffffffffffffffffffffffffffffffffffffffff16837f3834a2c8ea101e1468b529270d35fbff0a12de32a5a7e5729b8b4dad6fb32c0160405160405180910390a3505050565b600660205280600052604060002060009150905080600001549080600101805461162e906130d3565b80601f016020809104026020016040519081016040528092919081815260200182805461165a906130d3565b80156116a75780601f1061167c576101008083540402835291602001916116a7565b820191906000526020600020905b81548152906001019060200180831161168a57829003601f168201915b5050505050908060030154908060040154908060050154908060060160009054906101000a900460ff16908060070154905087565b6000600660008681526020019081526020016000209050806003015442101561173a576040517f08c379a000000000000000000000000000000000000000000000000000000000815260040161173190612a7e565b60405180910390fd5b80600401544210611780576040517f08c379a000000000000000000000000000000000000000000000000000000000815260040161177790612aea565b60405180910390fd5b836001600087815260200190815260200160002060003373ffffffffffffffffffffffffffffffffffffffff1673ffffffffffffffffffffffffffffffffffffffff1681526020019081526020016000208054905011611815576040517f08c379a000000000000000000000000000000000000000000000000000000000815260040161180c90612b56565b60405180910390fd5b60006002600087815260200190815260200160002060003373ffffffffffffffffffffffffffffffffffffffff1673ffffffffffffffffffffffffffffffffffffffff168152602001908152602001600020600086815260200190815260200160002054146118b9576040517f08c379a00000000000000000000000000000000000000000000000000000000081526004016118b090612bc2565b60405180910390fd5b82816002018054905011611902576040517f08c379a00000000000000000000000000000000000000000000000000000000081526004016118f990612c2e565b60405180910390fd5b60008383604051602001611917929190612c90565b6040516020818303038152906040528051906020012090506001600087815260200190815260200160002060003373ffffffffffffffffffffffffffffffffffffffff1673ffffffffffffffffffffffffffffffffffffffff168152602001908152602001600020858154811061199157611990612cbc565b5b906000526020600020015481146119dd576040517f08c379a00000000000000000000000000000000000000000000000000000000081526004016119d490612d37565b60405180910390fd5b6001846119ea9190612d86565b6002600088815260200190815260200160002060003373ffffffffffffffffffffffffffffffffffffffff1673ffffffffffffffffffffffffffffffffffffffff1681526020019081526020016000206000878152602001908152602001600020819055506003600087815260200190815260200160002060008581526020019081526020016000206000815480929190611a8490612dba565b91905055503373ffffffffffffffffffffffffffffffffffffffff16867fd5232b050e3221ade5a3653733191681ef3bde39c4530d87c9bb74004f99dadc86604051611ad091906121b9565b60405180910390a3505050505050565b60006006600083815260200190815260200160002090508060040154421015611b3e576040517f08c379a0000000000000000000000000000000000000000000000000000000008152600401611b35906134cc565b60405180910390fd5b8060060160009054906101000a900460ff1615611b90576040517f08c379a0000000000000000000000000000000000000000000000000000000008152600401611b8790613538565b60405180910390fd5b6000806000805b8460020180549050811015611c0e57600060036000888152602001908152602001600020600083815260200190815260200160002054905084811115611be65780945081935060009250611c00565b8481148015611bf55750600085115b15611bff57600192505b5b508080600101915050611b97565b50600083118015611c1d575080155b15611c8d5781846007018190555060018460060160006101000a81548160ff021916908315150217905550847f0a65a31222d4c537fe1231c104b70495998ef0979f26ccb3440810cf056d686f83866005015486604051611c8093929190613558565b60405180910390a2611c8e565b5b5050505050565b606060066000838152602001908152602001600020600201805480602002602001604051908101604052809291908181526020016000905b82821015611d79578382906000526020600020018054611cec906130d3565b80601f0160208091040260200160405190810160405280929190818152602001828054611d18906130d3565b8015611d655780601f10611d3a57610100808354040283529160200191611d65565b820191906000526020600020905b815481529060010190602001808311611d4857829003601f168201915b505050505081526020019060010190611ccd565b505050509050919050565b600860009054906101000a900473ffffffffffffffffffffffffffffffffffffffff1681565b60008054906101000a900473ffffffffffffffffffffffffffffffffffffffff1681565b6103e881565b611e50848573ffffffffffffffffffffffffffffffffffffffff166323b872dd868686604051602401611e099392919061358f565b604051602081830303815290604052915060e01b6020820180517bffffffffffffffffffffffffffffffffffffffffffffffffffffffff8381831617835250505050611ed5565b50505050565b611ed0838473ffffffffffffffffffffffffffffffffffffffff1663a9059cbb8585604051602401611e899291906135c6565b604051602081830303815290604052915060e01b6020820180517bffffffffffffffffffffffffffffffffffffffffffffffffffffffff8381831617835250505050611ed5565b505050565b600080602060008451602086016000885af180611ef8576040513d6000823e3d81fd5b3d925060005191505060008214611f13576001811415611f2f565b60008473ffffffffffffffffffffffffffffffffffffffff163b145b15611f7157836040517f5274afe7000000000000000000000000000000000000000000000000000000008152600401611f6891906128c5565b60405180910390fd5b50505050565b828054828255906000526020600020908101928215611fbf579160200282015b82811115611fbe578251829081611fae91906132a6565b5091602001919060010190611f97565b5b509050611fcc9190611fd0565b5090565b5b80821115611ff05760008181611fe79190611ff4565b50600101611fd1565b5090565b508054612000906130d3565b6000825580601f106120125750612031565b601f0160209004906000526020600020908101906120309190612034565b5b50565b5b8082111561204d576000816000905550600101612035565b5090565b6000604051905090565b600080fd5b600080fd5b6000819050919050565b61207881612065565b811461208357600080fd5b50565b6000813590506120958161206f565b92915050565b600073ffffffffffffffffffffffffffffffffffffffff82169050919050565b60006120c68261209b565b9050919050565b6120d6816120bb565b81146120e157600080fd5b50565b6000813590506120f3816120cd565b92915050565b6000819050919050565b61210c816120f9565b811461211757600080fd5b50565b60008135905061212981612103565b92915050565b600080600080600060a0868803121561214b5761214a61205b565b5b600061215988828901612086565b955050602061216a888289016120e4565b945050604061217b88828901612086565b935050606061218c88828901612086565b925050608061219d8882890161211a565b9150509295509295909350565b6121b381612065565b82525050565b60006020820190506121ce60008301846121aa565b92915050565b600080604083850312156121eb576121ea61205b565b5b60006121f985828601612086565b925050602061220a85828601612086565b9150509250929050565b60008060006060848603121561222d5761222c61205b565b5b600061223b86828701612086565b935050602061224c868287016120e4565b925050604061225d86828701612086565b9150509250925092565b60008115159050919050565b61227c81612267565b82525050565b60006020820190506122976000830184612273565b92915050565b6000602082840312156122b3576122b261205b565b5b60006122c1848285016120e4565b91505092915050565b600080fd5b600080fd5b6000601f19601f8301169050919050565b7f4e487b7100000000000000000000000000000000000000000000000000000000600052604160045260246000fd5b61231d826122d4565b810181811067ffffffffffffffff8211171561233c5761233b6122e5565b5b80604052505050565b600061234f612051565b905061235b8282612314565b919050565b600067ffffffffffffffff82111561237b5761237a6122e5565b5b612384826122d4565b9050602081019050919050565b82818337600083830152505050565b60006123b36123ae84612360565b612345565b9050828152602081018484840111156123cf576123ce6122cf565b5b6123da848285612391565b509392505050565b600082601f8301126123f7576123f66122ca565b5b81356124078482602086016123a0565b91505092915050565b600067ffffffffffffffff82111561242b5761242a6122e5565b5b602082029050602081019050919050565b600080fd5b600061245461244f84612410565b612345565b905080838252602082019050602084028301858111156124775761247661243c565b5b835b818110156124be57803567ffffffffffffffff81111561249c5761249b6122ca565b5b8086016124a989826123e2565b85526020850194505050602081019050612479565b5050509392505050565b600082601f8301126124dd576124dc6122ca565b5b81356124ed848260208601612441565b91505092915050565b600080600080608085870312156125105761250f61205b565b5b600085013567ffffffffffffffff81111561252e5761252d612060565b5b61253a878288016123e2565b945050602085013567ffffffffffffffff81111561255b5761255a612060565b5b612567878288016124c8565b935050604061257887828801612086565b925050606061258987828801612086565b91505092959194509250565b61259e816120f9565b82525050565b60006020820190506125b96000830184612595565b92915050565b600080604083850312156125d6576125d561205b565b5b60006125e485828601612086565b92505060206125f58582860161211a565b9150509250929050565b6000602082840312156126155761261461205b565b5b600061262384828501612086565b91505092915050565b600081519050919050565b600082825260208201905092915050565b60005b8381101561266657808201518184015260208101905061264b565b60008484015250505050565b600061267d8261262c565b6126878185612637565b9350612697818560208601612648565b6126a0816122d4565b840191505092915050565b600060e0820190506126c0600083018a6121aa565b81810360208301526126d28189612672565b90506126e160408301886121aa565b6126ee60608301876121aa565b6126fb60808301866121aa565b61270860a0830185612273565b61271560c08301846121aa565b98975050505050505050565b6000806000806080858703121561273b5761273a61205b565b5b600061274987828801612086565b945050602061275a87828801612086565b935050604061276b87828801612086565b925050606061277c8782880161211a565b91505092959194509250565b600081519050919050565b600082825260208201905092915050565b6000819050602082019050919050565b600082825260208201905092915050565b60006127d08261262c565b6127da81856127b4565b93506127ea818560208601612648565b6127f3816122d4565b840191505092915050565b600061280a83836127c5565b905092915050565b6000602082019050919050565b600061282a82612788565b6128348185612793565b935083602082028501612846856127a4565b8060005b85811015612882578484038952815161286385826127fe565b945061286e83612812565b925060208a0199505060018101905061284a565b50829750879550505050505092915050565b600060208201905081810360008301526128ae818461281f565b905092915050565b6128bf816120bb565b82525050565b60006020820190506128da60008301846128b6565b92915050565b6000819050919050565b60006129056129006128fb8461209b565b6128e0565b61209b565b9050919050565b6000612917826128ea565b9050919050565b60006129298261290c565b9050919050565b6129398161291e565b82525050565b60006020820190506129546000830184612930565b92915050565b7f4e6f742061646d696e0000000000000000000000000000000000000000000000600082015250565b6000612990600983612637565b915061299b8261295a565b602082019050919050565b600060208201905081810360008301526129bf81612983565b9050919050565b7f55736572206973206e6f74207072656d69756d00000000000000000000000000600082015250565b60006129fc601383612637565b9150612a07826129c6565b602082019050919050565b60006020820190508181036000830152612a2b816129ef565b9050919050565b7f436f6d6d6974207068617365206e6f7420656e64656400000000000000000000600082015250565b6000612a68601683612637565b9150612a7382612a32565b602082019050919050565b60006020820190508181036000830152612a9781612a5b565b9050919050565b7f52657665616c20706861736520656e6465640000000000000000000000000000600082015250565b6000612ad4601283612637565b9150612adf82612a9e565b602082019050919050565b60006020820190508181036000830152612b0381612ac7565b9050919050565b7f496e76616c696420636f6d6d69746d656e7420696e6465780000000000000000600082015250565b6000612b40601883612637565b9150612b4b82612b0a565b602082019050919050565b60006020820190508181036000830152612b6f81612b33565b9050919050565b7f416c72656164792072657665616c656400000000000000000000000000000000600082015250565b6000612bac601083612637565b9150612bb782612b76565b602082019050919050565b60006020820190508181036000830152612bdb81612b9f565b9050919050565b7f496e76616c6964206f7074696f6e20696e646578000000000000000000000000600082015250565b6000612c18601483612637565b9150612c2382612be2565b602082019050919050565b60006020820190508181036000830152612c4781612c0b565b9050919050565b6000819050919050565b612c69612c6482612065565b612c4e565b82525050565b6000819050919050565b612c8a612c85826120f9565b612c6f565b82525050565b6000612c9c8285612c58565b602082019150612cac8284612c79565b6020820191508190509392505050565b7f4e487b7100000000000000000000000000000000000000000000000000000000600052603260045260246000fd5b7f48617368206d69736d6174636800000000000000000000000000000000000000600082015250565b6000612d21600d83612637565b9150612d2c82612ceb565b602082019050919050565b60006020820190508181036000830152612d5081612d14565b9050919050565b7f4e487b7100000000000000000000000000000000000000000000000000000000600052601160045260246000fd5b6000612d9182612065565b9150612d9c83612065565b9250828201905080821115612db457612db3612d57565b5b92915050565b6000612dc582612065565b91507fffffffffffffffffffffffffffffffffffffffffffffffffffffffffffffffff8203612df757612df6612d57565b5b600182019050919050565b7f506f6c6c206e6f74207265736f6c766564000000000000000000000000000000600082015250565b6000612e38601183612637565b9150612e4382612e02565b602082019050919050565b60006020820190508181036000830152612e6781612e2b565b9050919050565b7f5573657220646964206e6f742077696e00000000000000000000000000000000600082015250565b6000612ea4601083612637565b9150612eaf82612e6e565b602082019050919050565b60006020820190508181036000830152612ed381612e97565b9050919050565b7f416c726561647920636c61696d65640000000000000000000000000000000000600082015250565b6000612f10600f83612637565b9150612f1b82612eda565b602082019050919050565b60006020820190508181036000830152612f3f81612f03565b9050919050565b7f4e6f2077696e6e6572733f204572726f722e0000000000000000000000000000600082015250565b6000612f7c601283612637565b9150612f8782612f46565b602082019050919050565b60006020820190508181036000830152612fab81612f6f565b9050919050565b7f4e487b7100000000000000000000000000000000000000000000000000000000600052601260045260246000fd5b6000612fec82612065565b9150612ff783612065565b92508261300757613006612fb2565b5b828204905092915050565b7f4f6e6c79207072656d69756d2075736572732063616e2063726561746520706f60008201527f6c6c730000000000000000000000000000000000000000000000000000000000602082015250565b600061306e602383612637565b915061307982613012565b604082019050919050565b6000602082019050818103600083015261309d81613061565b9050919050565b7f4e487b7100000000000000000000000000000000000000000000000000000000600052602260045260246000fd5b600060028204905060018216806130eb57607f821691505b6020821081036130fe576130fd6130a4565b5b50919050565b60008190508160005260206000209050919050565b60006020601f8301049050919050565b600082821b905092915050565b6000600883026131667fffffffffffffffffffffffffffffffffffffffffffffffffffffffffffffffff82613129565b6131708683613129565b95508019841693508086168417925050509392505050565b60006131a361319e61319984612065565b6128e0565b612065565b9050919050565b6000819050919050565b6131bd83613188565b6131d16131c9826131aa565b848454613136565b825550505050565b600090565b6131e66131d9565b6131f18184846131b4565b505050565b5b818110156132155761320a6000826131de565b6001810190506131f7565b5050565b601f82111561325a5761322b81613104565b61323484613119565b81016020851015613243578190505b61325761324f85613119565b8301826131f6565b50505b505050565b600082821c905092915050565b600061327d6000198460080261325f565b1980831691505092915050565b6000613296838361326c565b9150826002028217905092915050565b6132af8261262c565b67ffffffffffffffff8111156132c8576132c76122e5565b5b6132d282546130d3565b6132dd828285613219565b600060209050601f83116001811461331057600084156132fe578287015190505b613308858261328a565b865550613370565b601f19841661331e86613104565b60005b8281101561334657848901518255600182019150602085019450602081019050613321565b86831015613363578489015161335f601f89168261326c565b8355505b6001600288020188555050505b505050505050565b600060408201905081810360008301526133928185612672565b90506133a160208301846121aa565b9392505050565b7f596f7520646964206e6f742077696e206174207468697320696e646578000000600082015250565b60006133de601d83612637565b91506133e9826133a8565b602082019050919050565b6000602082019050818103600083015261340d816133d1565b9050919050565b7f436f6d6d697420706861736520656e6465640000000000000000000000000000600082015250565b600061344a601283612637565b915061345582613414565b602082019050919050565b600060208201905081810360008301526134798161343d565b9050919050565b7f52657665616c207068617365206e6f7420656e64656400000000000000000000600082015250565b60006134b6601683612637565b91506134c182613480565b602082019050919050565b600060208201905081810360008301526134e5816134a9565b9050919050565b7f416c7265616479207265736f6c76656400000000000000000000000000000000600082015250565b6000613522601083612637565b915061352d826134ec565b602082019050919050565b6000602082019050818103600083015261355181613515565b9050919050565b600060608201905061356d60008301866121aa565b61357a60208301856121aa565b61358760408301846121aa565b949350505050565b60006060820190506135a460008301866128b6565b6135b160208301856128b6565b6135be60408301846121aa565b949350505050565b60006040820190506135db60008301856128b6565b6135e860208301846121aa565b939250505056fea2646970667358221220b0bf7890cc74d0c3ce247232dd944759c08857355e4298aad84184e14410141a64736f6c63430008180033",
  "linkReferences": {},
  "deployedLinkReferences": {}
}