{
  "_format": "hh-sol-artifact-1",
  "contractName": "OraclePoll",
  "sourceName": "contracts/OraclePoll.sol",
  "abi": [
    {
      "inputs": [
        {
          "internalType": "address",
          "name": "_usdToken",
          "type": "address"
        }
      ],
      "stateMutability": "nonpayable",
      "type": "constructor"
    },
    {
      "inputs": [
        {
          "internalType": "address",
          "name": "token",
          "type": "address"
        }
      ],
      "name": "SafeERC20FailedOperation",
      "type": "error"
    },
    {
      "anonymous": false,
      "inputs": [
        {
          "indexed": true,
          "internalType": "uint256",
          "name": "pollId",
          "type": "uint256"
        },
        {
          "indexed": false,
          "internalType": "string",
          "name": "question",
          "type": "string"
        },
        {
          "indexed": false,
          "internalType": "uint256",
          "name": "commitEndTime",
          "type": "uint256"
        }
      ],
      "name": "PollCreated",
      "type": "event"
    },
    {
      "anonymous": false,
      "inputs": [
        {
          "indexed": true,
          "internalType": "uint256",
          "name": "pollId",
          "type": "uint256"
        },
        {
          "indexed": false,
          "internalType": "uint256",
          "name": "winningOptionIndex",
          "type": "uint256"
        },
        {
          "indexed": false,
          "internalType": "uint256",
          "name": "totalStake",
          "type": "uint256"
        },
        {
          "indexed": false,
          "internalType": "uint256",
          "name": "winnerCount",
          "type": "uint256"
        }
      ],
      "name": "PollResolved",
      "type": "event"
    },
    {
      "anonymous": false,
      "inputs": [
        {
          "indexed": true,
          "internalType": "uint256",
          "name": "pollId",
          "type": "uint256"
        },
        {
          "indexed": true,
          "internalType": "address",
          "name": "voter",
          "type": "address"
        }
      ],
      "name": "VoteCommitted",
      "type": "event"
    },
    {
      "anonymous": false,
      "inputs": [
        {
          "indexed": true,
          "internalType": "uint256",
          "name": "pollId",
          "type": "uint256"
        },
        {
          "indexed": true,
          "internalType": "address",
          "name": "voter",
          "type": "address"
        },
        {
          "indexed": false,
          "internalType": "uint256",
          "name": "optionIndex",
          "type": "uint256"
        }
      ],
      "name": "VoteRevealed",
      "type": "event"
    },
    {
      "inputs": [],
      "name": "STAKE_AMOUNT",
      "outputs": [
        {
          "internalType": "uint256",
          "name": "",
          "type": "uint256"
        }
      ],
      "stateMutability": "view",
      "type": "function"
    },
    {
      "inputs": [
        {
          "internalType": "uint256",
          "name": "_pollId",
          "type": "uint256"
        },
        {
          "internalType": "uint256",
          "name": "_commitmentIndex",
          "type": "uint256"
        }
      ],
      "name": "claimReward",
      "outputs": [],
      "stateMutability": "nonpayable",
      "type": "function"
    },
    {
      "inputs": [
        {
          "internalType": "uint256",
          "name": "_pollId",
          "type": "uint256"
        },
        {
          "internalType": "bytes32",
          "name": "_voteHash",
          "type": "bytes32"
        }
      ],
      "name": "commitVote",
      "outputs": [],
      "stateMutability": "nonpayable",
      "type": "function"
    },
    {
      "inputs": [
        {
          "internalType": "uint256",
          "name": "",
          "type": "uint256"
        },
        {
          "internalType": "address",
          "name": "",
          "type": "address"
        },
        {
          "internalType": "uint256",
          "name": "",
          "type": "uint256"
        }
      ],
      "name": "commitments",
      "outputs": [
        {
          "internalType": "bytes32",
          "name": "",
          "type": "bytes32"
        }
      ],
      "stateMutability": "view",
      "type": "function"
    },
    {
      "inputs": [
        {
          "internalType": "string",
          "name": "_question",
          "type": "string"
        },
        {
          "internalType": "string[]",
          "name": "_options",
          "type": "string[]"
        },
        {
          "internalType": "uint256",
          "name": "_commitDuration",
          "type": "uint256"
        },
        {
          "internalType": "uint256",
          "name": "_revealDuration",
          "type": "uint256"
        }
      ],
      "name": "createPoll",
      "outputs": [],
      "stateMutability": "nonpayable",
      "type": "function"
    },
    {
      "inputs": [
        {
          "internalType": "uint256",
          "name": "_pollId",
          "type": "uint256"
        }
      ],
      "name": "getPollOptions",
      "outputs": [
        {
          "internalType": "string[]",
          "name": "",
          "type": "string[]"
        }
      ],
      "stateMutability": "view",
      "type": "function"
    },
    {
      "inputs": [],
      "name": "nextPollId",
      "outputs": [
        {
          "internalType": "uint256",
          "name": "",
          "type": "uint256"
        }
      ],
      "stateMutability": "view",
      "type": "function"
    },
    {
      "inputs": [
        {
          "internalType": "uint256",
          "name": "",
          "type": "uint256"
        },
        {
          "internalType": "uint256",
          "name": "",
          "type": "uint256"
        }
      ],
      "name": "optionTallies",
      "outputs": [
        {
          "internalType": "uint256",
          "name": "",
          "type": "uint256"
        }
      ],
      "stateMutability": "view",
      "type": "function"
    },
    {
      "inputs": [
        {
          "internalType": "uint256",
          "name": "",
          "type": "uint256"
        }
      ],
      "name": "polls",
      "outputs": [
        {
          "internalType": "uint256",
          "name": "id",
          "type": "uint256"
        },
        {
          "internalType": "string",
          "name": "question",
          "type": "string"
        },
        {
          "internalType": "uint256",
          "name": "commitEndTime",
          "type": "uint256"
        },
        {
          "internalType": "uint256",
          "name": "revealEndTime",
          "type": "uint256"
        },
        {
          "internalType": "uint256",
          "name": "totalStake",
          "type": "uint256"
        },
        {
          "internalType": "bool",
          "name": "resolved",
          "type": "bool"
        },
        {
          "internalType": "uint256",
          "name": "winningOptionIndex",
          "type": "uint256"
        }
      ],
      "stateMutability": "view",
      "type": "function"
    },
    {
      "inputs": [
        {
          "internalType": "uint256",
          "name": "_pollId",
          "type": "uint256"
        }
      ],
      "name": "resolvePoll",
      "outputs": [],
      "stateMutability": "nonpayable",
      "type": "function"
    },
    {
      "inputs": [
        {
          "internalType": "uint256",
          "name": "_pollId",
          "type": "uint256"
        },
        {
          "internalType": "uint256",
          "name": "_commitmentIndex",
          "type": "uint256"
        },
        {
          "internalType": "uint256",
          "name": "_optionIndex",
          "type": "uint256"
        },
        {
          "internalType": "bytes32",
          "name": "_salt",
          "type": "bytes32"
        }
      ],
      "name": "revealVote",
      "outputs": [],
      "stateMutability": "nonpayable",
      "type": "function"
    },
    {
      "inputs": [
        {
          "internalType": "uint256",
          "name": "",
          "type": "uint256"
        },
        {
          "internalType": "address",
          "name": "",
          "type": "address"
        },
        {
          "internalType": "uint256",
          "name": "",
          "type": "uint256"
        }
      ],
      "name": "rewardClaimed",
      "outputs": [
        {
          "internalType": "bool",
          "name": "",
          "type": "bool"
        }
      ],
      "stateMutability": "view",
      "type": "function"
    },
    {
      "inputs": [],
      "name": "usdToken",
      "outputs": [
        {
          "internalType": "contract IERC20",
          "name": "",
          "type": "address"
        }
      ],
      "stateMutability": "view",
      "type": "function"
    },
    {
      "inputs": [
        {
          "internalType": "uint256",
          "name": "",
          "type": "uint256"
        },
        {
          "internalType": "address",
          "name": "",
          "type": "address"
        },
        {
          "internalType": "uint256",
          "name": "",
          "type": "uint256"
        }
      ],
      "name": "votes",
      "outputs": [
        {
          "internalType": "uint256",
          "name": "",
          "type": "uint256"
        }
      ],
      "stateMutability": "view",
      "type": "function"
    }
  ],
  "bytecode": "0x60806040523480156200001157600080fd5b50604051620027fa380380620027fa8339818101604052810190620000379190620000e8565b806000806101000a81548173ffffffffffffffffffffffffffffffffffffffff021916908373ffffffffffffffffffffffffffffffffffffffff160217905550506200011a565b600080fd5b600073ffffffffffffffffffffffffffffffffffffffff82169050919050565b6000620000b08262000083565b9050919050565b620000c281620000a3565b8114620000ce57600080fd5b50565b600081519050620000e281620000b7565b92915050565b6000602082840312156200010157620001006200007e565b5b60006200011184828501620000d1565b91505092915050565b6126d0806200012a6000396000f3fe608060405234801561001057600080fd5b50600436106100ea5760003560e01c80639da691801161008c578063e74fef3711610066578063e74fef3714610273578063f75627651461028f578063f897a22b146102bf578063faf5625f146102dd576100ea565b80639da6918014610205578063ac2f007414610221578063b08461e614610257576100ea565b806378310bca116100c857806378310bca1461016d5780637a061a0c1461019d57806386bb8f37146101b9578063973a8bb1146101d5576100ea565b80632b786571146100ef5780634bedab191461010d57806371192b171461013d575b600080fd5b6100f76102fb565b6040516101049190611393565b60405180910390f35b610127600480360381019061012291906113ee565b610301565b6040516101349190611393565b60405180910390f35b6101576004803603810190610152919061148c565b610326565b60405161016491906114fa565b60405180910390f35b6101876004803603810190610182919061148c565b610362565b6040516101949190611393565b60405180910390f35b6101b760048036038101906101b29190611741565b610394565b005b6101d360048036038101906101ce91906113ee565b610473565b005b6101ef60048036038101906101ea919061148c565b61078d565b6040516101fc91906117f9565b60405180910390f35b61021f600480360381019061021a9190611840565b6107cb565b005b61023b60048036038101906102369190611880565b610954565b60405161024e979695949392919061192c565b60405180910390f35b610271600480360381019061026c91906119a2565b610a2b565b005b61028d60048036038101906102889190611880565b610e2f565b005b6102a960048036038101906102a49190611880565b610fe4565b6040516102b69190611b15565b60405180910390f35b6102c76110d3565b6040516102d49190611b96565b60405180910390f35b6102e56110f7565b6040516102f29190611393565b60405180910390f35b60055481565b6003602052816000526040600020602052806000526040600020600091509150505481565b6004602052826000526040600020602052816000526040600020602052806000526040600020600092509250509054906101000a900460ff1681565b600260205282600052604060002060205281600052604060002060205280600052604060002060009250925050505481565b6000600560008154809291906103a990611be0565b9190505590506000600660008381526020019081526020016000209050818160000181905550858160010190816103e09190611e2a565b50848160020190805190602001906103f99291906112a0565b5083426104069190611efc565b816003018190555082844261041b9190611efc565b6104259190611efc565b8160040181905550817fc3ad3dd4f77bea708d7c21b918efa79c536b30c5048924662db7a2bd96f48316878360030154604051610463929190611f30565b60405180910390a2505050505050565b60006006600084815260200190815260200160002090508060060160009054906101000a900460ff166104db576040517f08c379a00000000000000000000000000000000000000000000000000000000081526004016104d290611fac565b60405180910390fd5b600181600701546104ec9190611efc565b6002600085815260200190815260200160002060003373ffffffffffffffffffffffffffffffffffffffff1673ffffffffffffffffffffffffffffffffffffffff1681526020019081526020016000206000848152602001908152602001600020541461058e576040517f08c379a000000000000000000000000000000000000000000000000000000000815260040161058590612018565b60405180910390fd5b6004600084815260200190815260200160002060003373ffffffffffffffffffffffffffffffffffffffff1673ffffffffffffffffffffffffffffffffffffffff168152602001908152602001600020600083815260200190815260200160002060009054906101000a900460ff161561063d576040517f08c379a000000000000000000000000000000000000000000000000000000000815260040161063490612084565b60405180910390fd5b600060036000858152602001908152602001600020600083600701548152602001908152602001600020549050600081116106ad576040517f08c379a00000000000000000000000000000000000000000000000000000000081526004016106a4906120f0565b60405180910390fd5b60008183600501546106bf919061213f565b905060016004600087815260200190815260200160002060003373ffffffffffffffffffffffffffffffffffffffff1673ffffffffffffffffffffffffffffffffffffffff168152602001908152602001600020600086815260200190815260200160002060006101000a81548160ff021916908315150217905550610786338260008054906101000a900473ffffffffffffffffffffffffffffffffffffffff1673ffffffffffffffffffffffffffffffffffffffff166110fd9092919063ffffffff16565b5050505050565b600160205282600052604060002060205281600052604060002081815481106107b557600080fd5b9060005260206000200160009250925050505481565b600060066000848152602001908152602001600020905080600301544210610828576040517f08c379a000000000000000000000000000000000000000000000000000000000815260040161081f906121bc565b60405180910390fd5b61087733306103e860008054906101000a900473ffffffffffffffffffffffffffffffffffffffff1673ffffffffffffffffffffffffffffffffffffffff1661117c909392919063ffffffff16565b6103e881600501600082825461088d9190611efc565b925050819055506001600084815260200190815260200160002060003373ffffffffffffffffffffffffffffffffffffffff1673ffffffffffffffffffffffffffffffffffffffff1681526020019081526020016000208290806001815401808255809150506001900390600052602060002001600090919091909150553373ffffffffffffffffffffffffffffffffffffffff16837f3834a2c8ea101e1468b529270d35fbff0a12de32a5a7e5729b8b4dad6fb32c0160405160405180910390a3505050565b600660205280600052604060002060009150905080600001549080600101805461097d90611c57565b80601f01602080910402602001604051908101604052809291908181526020018280546109a990611c57565b80156109f65780601f106109cb576101008083540402835291602001916109f6565b820191906000526020600020905b8154815290600101906020018083116109d957829003601f168201915b5050505050908060030154908060040154908060050154908060060160009054906101000a900460ff16908060070154905087565b60006006600086815260200190815260200160002090508060030154421015610a89576040517f08c379a0000000000000000000000000000000000000000000000000000000008152600401610a8090612228565b60405180910390fd5b80600401544210610acf576040517f08c379a0000000000000000000000000000000000000000000000000000000008152600401610ac690612294565b60405180910390fd5b836001600087815260200190815260200160002060003373ffffffffffffffffffffffffffffffffffffffff1673ffffffffffffffffffffffffffffffffffffffff1681526020019081526020016000208054905011610b64576040517f08c379a0000000000000000000000000000000000000000000000000000000008152600401610b5b90612300565b60405180910390fd5b60006002600087815260200190815260200160002060003373ffffffffffffffffffffffffffffffffffffffff1673ffffffffffffffffffffffffffffffffffffffff16815260200190815260200160002060008681526020019081526020016000205414610c08576040517f08c379a0000000000000000000000000000000000000000000000000000000008152600401610bff9061236c565b60405180910390fd5b82816002018054905011610c51576040517f08c379a0000000000000000000000000000000000000000000000000000000008152600401610c48906123d8565b60405180910390fd5b60008383604051602001610c6692919061243a565b6040516020818303038152906040528051906020012090506001600087815260200190815260200160002060003373ffffffffffffffffffffffffffffffffffffffff1673ffffffffffffffffffffffffffffffffffffffff1681526020019081526020016000208581548110610ce057610cdf612466565b5b90600052602060002001548114610d2c576040517f08c379a0000000000000000000000000000000000000000000000000000000008152600401610d23906124e1565b60405180910390fd5b600184610d399190611efc565b6002600088815260200190815260200160002060003373ffffffffffffffffffffffffffffffffffffffff1673ffffffffffffffffffffffffffffffffffffffff1681526020019081526020016000206000878152602001908152602001600020819055506003600087815260200190815260200160002060008581526020019081526020016000206000815480929190610dd390611be0565b91905055503373ffffffffffffffffffffffffffffffffffffffff16867fd5232b050e3221ade5a3653733191681ef3bde39c4530d87c9bb74004f99dadc86604051610e1f9190611393565b60405180910390a3505050505050565b60006006600083815260200190815260200160002090508060040154421015610e8d576040517f08c379a0000000000000000000000000000000000000000000000000000000008152600401610e849061254d565b60405180910390fd5b8060060160009054906101000a900460ff1615610edf576040517f08c379a0000000000000000000000000000000000000000000000000000000008152600401610ed6906125b9565b60405180910390fd5b6000806000805b8460020180549050811015610f5d57600060036000888152602001908152602001600020600083815260200190815260200160002054905084811115610f355780945081935060009250610f4f565b8481148015610f445750600085115b15610f4e57600192505b5b508080600101915050610ee6565b50600083118015610f6c575080155b15610fdc5781846007018190555060018460060160006101000a81548160ff021916908315150217905550847f0a65a31222d4c537fe1231c104b70495998ef0979f26ccb3440810cf056d686f83866005015486604051610fcf939291906125d9565b60405180910390a2610fdd565b5b5050505050565b606060066000838152602001908152602001600020600201805480602002602001604051908101604052809291908181526020016000905b828210156110c857838290600052602060002001805461103b90611c57565b80601f016020809104026020016040519081016040528092919081815260200182805461106790611c57565b80156110b45780601f10611089576101008083540402835291602001916110b4565b820191906000526020600020905b81548152906001019060200180831161109757829003601f168201915b50505050508152602001906001019061101c565b505050509050919050565b60008054906101000a900473ffffffffffffffffffffffffffffffffffffffff1681565b6103e881565b611177838473ffffffffffffffffffffffffffffffffffffffff1663a9059cbb858560405160240161113092919061261f565b604051602081830303815290604052915060e01b6020820180517bffffffffffffffffffffffffffffffffffffffffffffffffffffffff83818316178352505050506111fe565b505050565b6111f8848573ffffffffffffffffffffffffffffffffffffffff166323b872dd8686866040516024016111b193929190612648565b604051602081830303815290604052915060e01b6020820180517bffffffffffffffffffffffffffffffffffffffffffffffffffffffff83818316178352505050506111fe565b50505050565b600080602060008451602086016000885af180611221576040513d6000823e3d81fd5b3d92506000519150506000821461123c576001811415611258565b60008473ffffffffffffffffffffffffffffffffffffffff163b145b1561129a57836040517f5274afe7000000000000000000000000000000000000000000000000000000008152600401611291919061267f565b60405180910390fd5b50505050565b8280548282559060005260206000209081019282156112e8579160200282015b828111156112e75782518290816112d79190611e2a565b50916020019190600101906112c0565b5b5090506112f591906112f9565b5090565b5b808211156113195760008181611310919061131d565b506001016112fa565b5090565b50805461132990611c57565b6000825580601f1061133b575061135a565b601f016020900490600052602060002090810190611359919061135d565b5b50565b5b8082111561137657600081600090555060010161135e565b5090565b6000819050919050565b61138d8161137a565b82525050565b60006020820190506113a86000830184611384565b92915050565b6000604051905090565b600080fd5b600080fd5b6113cb8161137a565b81146113d657600080fd5b50565b6000813590506113e8816113c2565b92915050565b60008060408385031215611405576114046113b8565b5b6000611413858286016113d9565b9250506020611424858286016113d9565b9150509250929050565b600073ffffffffffffffffffffffffffffffffffffffff82169050919050565b60006114598261142e565b9050919050565b6114698161144e565b811461147457600080fd5b50565b60008135905061148681611460565b92915050565b6000806000606084860312156114a5576114a46113b8565b5b60006114b3868287016113d9565b93505060206114c486828701611477565b92505060406114d5868287016113d9565b9150509250925092565b60008115159050919050565b6114f4816114df565b82525050565b600060208201905061150f60008301846114eb565b92915050565b600080fd5b600080fd5b6000601f19601f8301169050919050565b7f4e487b7100000000000000000000000000000000000000000000000000000000600052604160045260246000fd5b6115688261151f565b810181811067ffffffffffffffff8211171561158757611586611530565b5b80604052505050565b600061159a6113ae565b90506115a6828261155f565b919050565b600067ffffffffffffffff8211156115c6576115c5611530565b5b6115cf8261151f565b9050602081019050919050565b82818337600083830152505050565b60006115fe6115f9846115ab565b611590565b90508281526020810184848401111561161a5761161961151a565b5b6116258482856115dc565b509392505050565b600082601f83011261164257611641611515565b5b81356116528482602086016115eb565b91505092915050565b600067ffffffffffffffff82111561167657611675611530565b5b602082029050602081019050919050565b600080fd5b600061169f61169a8461165b565b611590565b905080838252602082019050602084028301858111156116c2576116c1611687565b5b835b8181101561170957803567ffffffffffffffff8111156116e7576116e6611515565b5b8086016116f4898261162d565b855260208501945050506020810190506116c4565b5050509392505050565b600082601f83011261172857611727611515565b5b813561173884826020860161168c565b91505092915050565b6000806000806080858703121561175b5761175a6113b8565b5b600085013567ffffffffffffffff811115611779576117786113bd565b5b6117858782880161162d565b945050602085013567ffffffffffffffff8111156117a6576117a56113bd565b5b6117b287828801611713565b93505060406117c3878288016113d9565b92505060606117d4878288016113d9565b91505092959194509250565b6000819050919050565b6117f3816117e0565b82525050565b600060208201905061180e60008301846117ea565b92915050565b61181d816117e0565b811461182857600080fd5b50565b60008135905061183a81611814565b92915050565b60008060408385031215611857576118566113b8565b5b6000611865858286016113d9565b92505060206118768582860161182b565b9150509250929050565b600060208284031215611896576118956113b8565b5b60006118a4848285016113d9565b91505092915050565b600081519050919050565b600082825260208201905092915050565b60005b838110156118e75780820151818401526020810190506118cc565b60008484015250505050565b60006118fe826118ad565b61190881856118b8565b93506119188185602086016118c9565b6119218161151f565b840191505092915050565b600060e082019050611941600083018a611384565b818103602083015261195381896118f3565b90506119626040830188611384565b61196f6060830187611384565b61197c6080830186611384565b61198960a08301856114eb565b61199660c0830184611384565b98975050505050505050565b600080600080608085870312156119bc576119bb6113b8565b5b60006119ca878288016113d9565b94505060206119db878288016113d9565b93505060406119ec878288016113d9565b92505060606119fd8782880161182b565b91505092959194509250565b600081519050919050565b600082825260208201905092915050565b6000819050602082019050919050565b600082825260208201905092915050565b6000611a51826118ad565b611a5b8185611a35565b9350611a6b8185602086016118c9565b611a748161151f565b840191505092915050565b6000611a8b8383611a46565b905092915050565b6000602082019050919050565b6000611aab82611a09565b611ab58185611a14565b935083602082028501611ac785611a25565b8060005b85811015611b035784840389528151611ae48582611a7f565b9450611aef83611a93565b925060208a01995050600181019050611acb565b50829750879550505050505092915050565b60006020820190508181036000830152611b2f8184611aa0565b905092915050565b6000819050919050565b6000611b5c611b57611b528461142e565b611b37565b61142e565b9050919050565b6000611b6e82611b41565b9050919050565b6000611b8082611b63565b9050919050565b611b9081611b75565b82525050565b6000602082019050611bab6000830184611b87565b92915050565b7f4e487b7100000000000000000000000000000000000000000000000000000000600052601160045260246000fd5b6000611beb8261137a565b91507fffffffffffffffffffffffffffffffffffffffffffffffffffffffffffffffff8203611c1d57611c1c611bb1565b5b600182019050919050565b7f4e487b7100000000000000000000000000000000000000000000000000000000600052602260045260246000fd5b60006002820490506001821680611c6f57607f821691505b602082108103611c8257611c81611c28565b5b50919050565b60008190508160005260206000209050919050565b60006020601f8301049050919050565b600082821b905092915050565b600060088302611cea7fffffffffffffffffffffffffffffffffffffffffffffffffffffffffffffffff82611cad565b611cf48683611cad565b95508019841693508086168417925050509392505050565b6000611d27611d22611d1d8461137a565b611b37565b61137a565b9050919050565b6000819050919050565b611d4183611d0c565b611d55611d4d82611d2e565b848454611cba565b825550505050565b600090565b611d6a611d5d565b611d75818484611d38565b505050565b5b81811015611d9957611d8e600082611d62565b600181019050611d7b565b5050565b601f821115611dde57611daf81611c88565b611db884611c9d565b81016020851015611dc7578190505b611ddb611dd385611c9d565b830182611d7a565b50505b505050565b600082821c905092915050565b6000611e0160001984600802611de3565b1980831691505092915050565b6000611e1a8383611df0565b9150826002028217905092915050565b611e33826118ad565b67ffffffffffffffff811115611e4c57611e4b611530565b5b611e568254611c57565b611e61828285611d9d565b600060209050601f831160018114611e945760008415611e82578287015190505b611e8c8582611e0e565b865550611ef4565b601f198416611ea286611c88565b60005b82811015611eca57848901518255600182019150602085019450602081019050611ea5565b86831015611ee75784890151611ee3601f891682611df0565b8355505b6001600288020188555050505b505050505050565b6000611f078261137a565b9150611f128361137a565b9250828201905080821115611f2a57611f29611bb1565b5b92915050565b60006040820190508181036000830152611f4a81856118f3565b9050611f596020830184611384565b9392505050565b7f506f6c6c206e6f74207265736f6c766564000000000000000000000000000000600082015250565b6000611f966011836118b8565b9150611fa182611f60565b602082019050919050565b60006020820190508181036000830152611fc581611f89565b9050919050565b7f596f7520646964206e6f742077696e206174207468697320696e646578000000600082015250565b6000612002601d836118b8565b915061200d82611fcc565b602082019050919050565b6000602082019050818103600083015261203181611ff5565b9050919050565b7f416c726561647920636c61696d65640000000000000000000000000000000000600082015250565b600061206e600f836118b8565b915061207982612038565b602082019050919050565b6000602082019050818103600083015261209d81612061565b9050919050565b7f4e6f2077696e6e6572733f204572726f722e0000000000000000000000000000600082015250565b60006120da6012836118b8565b91506120e5826120a4565b602082019050919050565b60006020820190508181036000830152612109816120cd565b9050919050565b7f4e487b7100000000000000000000000000000000000000000000000000000000600052601260045260246000fd5b600061214a8261137a565b91506121558361137a565b92508261216557612164612110565b5b828204905092915050565b7f436f6d6d697420706861736520656e6465640000000000000000000000000000600082015250565b60006121a66012836118b8565b91506121b182612170565b602082019050919050565b600060208201905081810360008301526121d581612199565b9050919050565b7f436f6d6d6974207068617365206e6f7420656e64656400000000000000000000600082015250565b60006122126016836118b8565b915061221d826121dc565b602082019050919050565b6000602082019050818103600083015261224181612205565b9050919050565b7f52657665616c20706861736520656e6465640000000000000000000000000000600082015250565b600061227e6012836118b8565b915061228982612248565b602082019050919050565b600060208201905081810360008301526122ad81612271565b9050919050565b7f496e76616c696420636f6d6d69746d656e7420696e6465780000000000000000600082015250565b60006122ea6018836118b8565b91506122f5826122b4565b602082019050919050565b60006020820190508181036000830152612319816122dd565b9050919050565b7f416c72656164792072657665616c656400000000000000000000000000000000600082015250565b60006123566010836118b8565b915061236182612320565b602082019050919050565b6000602082019050818103600083015261238581612349565b9050919050565b7f496e76616c6964206f7074696f6e20696e646578000000000000000000000000600082015250565b60006123c26014836118b8565b91506123cd8261238c565b602082019050919050565b600060208201905081810360008301526123f1816123b5565b9050919050565b6000819050919050565b61241361240e8261137a565b6123f8565b82525050565b6000819050919050565b61243461242f826117e0565b612419565b82525050565b60006124468285612402565b6020820191506124568284612423565b6020820191508190509392505050565b7f4e487b7100000000000000000000000000000000000000000000000000000000600052603260045260246000fd5b7f48617368206d69736d6174636800000000000000000000000000000000000000600082015250565b60006124cb600d836118b8565b91506124d682612495565b602082019050919050565b600060208201905081810360008301526124fa816124be565b9050919050565b7f52657665616c207068617365206e6f7420656e64656400000000000000000000600082015250565b60006125376016836118b8565b915061254282612501565b602082019050919050565b600060208201905081810360008301526125668161252a565b9050919050565b7f416c7265616479207265736f6c76656400000000000000000000000000000000600082015250565b60006125a36010836118b8565b91506125ae8261256d565b602082019050919050565b600060208201905081810360008301526125d281612596565b9050919050565b60006060820190506125ee6000830186611384565b6125fb6020830185611384565b6126086040830184611384565b949350505050565b6126198161144e565b82525050565b60006040820190506126346000830185612610565b6126416020830184611384565b9392505050565b600060608201905061265d6000830186612610565b61266a6020830185612610565b6126776040830184611384565b949350505050565b60006020820190506126946000830184612610565b9291505056fea26469706673582212208d1616bb2bde08b39282ed0862bea0fb5526c81a0a35055e29edb6a1f76a816764736f6c63430008180033",
  "linkReferences": {},
  "deployedLinkReferences": {}
}