{
  "_format": "hh-sol-artifact-1",
  "contractName": "OraclePoll",
  "sourceName": "contracts/OraclePoll.sol",
  "abi": [
    {
      "inputs": [
        {
          "internalType": "address",
          "name": "_usdToken",
          "type": "address"
        }
      ],
      "stateMutability": "nonpayable",
      "type": "constructor"
    },
    {
      "inputs": [
        {
          "internalType": "address",
          "name": "token",
          "type": "address"
        }
      ],
      "name": "SafeERC20FailedOperation",
      "type": "error"
    },
    {
      "anonymous": false,
      "inputs": [
        {
          "indexed": true,
          "internalType": "uint256",
          "name": "pollId",
          "type": "uint256"
        },
        {
          "indexed": false,
          "internalType": "string",
          "name": "question",
          "type": "string"
        },
        {
          "indexed": false,
          "internalType": "uint256",
          "name": "commitEndTime",
          "type": "uint256"
        }
      ],
      "name": "PollCreated",
      "type": "event"
    },
    {
      "anonymous": false,
      "inputs": [
        {
          "indexed": true,
          "internalType": "uint256",
          "name": "pollId",
          "type": "uint256"
        },
        {
          "indexed": false,
          "internalType": "uint256",
          "name": "winningOptionIndex",
          "type": "uint256"
        },
        {
          "indexed": false,
          "internalType": "uint256",
          "name": "totalStake",
          "type": "uint256"
        },
        {
          "indexed": false,
          "internalType": "uint256",
          "name": "winnerCount",
          "type": "uint256"
        }
      ],
      "name": "PollResolved",
      "type": "event"
    },
    {
      "anonymous": false,
      "inputs": [
        {
          "indexed": true,
          "internalType": "uint256",
          "name": "pollId",
          "type": "uint256"
        },
        {
          "indexed": true,
          "internalType": "address",
          "name": "voter",
          "type": "address"
        }
      ],
      "name": "VoteCommitted",
      "type": "event"
    },
    {
      "anonymous": false,
      "inputs": [
        {
          "indexed": true,
          "internalType": "uint256",
          "name": "pollId",
          "type": "uint256"
        },
        {
          "indexed": true,
          "internalType": "address",
          "name": "voter",
          "type": "address"
        },
        {
          "indexed": false,
          "internalType": "uint256",
          "name": "optionIndex",
          "type": "uint256"
        }
      ],
      "name": "VoteRevealed",
      "type": "event"
    },
    {
      "inputs": [],
      "name": "STAKE_AMOUNT",
      "outputs": [
        {
          "internalType": "uint256",
          "name": "",
          "type": "uint256"
        }
      ],
      "stateMutability": "view",
      "type": "function"
    },
    {
      "inputs": [
        {
          "internalType": "uint256",
          "name": "_pollId",
          "type": "uint256"
        },
        {
          "internalType": "uint256",
          "name": "_commitmentIndex",
          "type": "uint256"
        }
      ],
      "name": "claimReward",
      "outputs": [],
      "stateMutability": "nonpayable",
      "type": "function"
    },
    {
      "inputs": [
        {
          "internalType": "uint256",
          "name": "_pollId",
          "type": "uint256"
        },
        {
          "internalType": "bytes32",
          "name": "_voteHash",
          "type": "bytes32"
        }
      ],
      "name": "commitVote",
      "outputs": [],
      "stateMutability": "nonpayable",
      "type": "function"
    },
    {
      "inputs": [
        {
          "internalType": "uint256",
          "name": "",
          "type": "uint256"
        },
        {
          "internalType": "address",
          "name": "",
          "type": "address"
        },
        {
          "internalType": "uint256",
          "name": "",
          "type": "uint256"
        }
      ],
      "name": "commitments",
      "outputs": [
        {
          "internalType": "bytes32",
          "name": "",
          "type": "bytes32"
        }
      ],
      "stateMutability": "view",
      "type": "function"
    },
    {
      "inputs": [
        {
          "internalType": "string",
          "name": "_question",
          "type": "string"
        },
        {
          "internalType": "string[]",
          "name": "_options",
          "type": "string[]"
        },
        {
          "internalType": "uint256",
          "name": "_commitDuration",
          "type": "uint256"
        },
        {
          "internalType": "uint256",
          "name": "_revealDuration",
          "type": "uint256"
        }
      ],
      "name": "createPoll",
      "outputs": [],
      "stateMutability": "nonpayable",
      "type": "function"
    },
    {
      "inputs": [
        {
          "internalType": "uint256",
          "name": "_pollId",
          "type": "uint256"
        }
      ],
      "name": "getPollOptions",
      "outputs": [
        {
          "internalType": "string[]",
          "name": "",
          "type": "string[]"
        }
      ],
      "stateMutability": "view",
      "type": "function"
    },
    {
      "inputs": [
        {
          "internalType": "uint256",
          "name": "_pollId",
          "type": "uint256"
        },
        {
          "internalType": "address",
          "name": "_voter",
          "type": "address"
        },
        {
          "internalType": "uint256",
          "name": "_commitmentIndex",
          "type": "uint256"
        }
      ],
      "name": "hasRevealed",
      "outputs": [
        {
          "internalType": "bool",
          "name": "",
          "type": "bool"
        }
      ],
      "stateMutability": "view",
      "type": "function"
    },
    {
      "inputs": [],
      "name": "nextPollId",
      "outputs": [
        {
          "internalType": "uint256",
          "name": "",
          "type": "uint256"
        }
      ],
      "stateMutability": "view",
      "type": "function"
    },
    {
      "inputs": [
        {
          "internalType": "uint256",
          "name": "",
          "type": "uint256"
        },
        {
          "internalType": "uint256",
          "name": "",
          "type": "uint256"
        }
      ],
      "name": "optionTallies",
      "outputs": [
        {
          "internalType": "uint256",
          "name": "",
          "type": "uint256"
        }
      ],
      "stateMutability": "view",
      "type": "function"
    },
    {
      "inputs": [
        {
          "internalType": "uint256",
          "name": "",
          "type": "uint256"
        }
      ],
      "name": "polls",
      "outputs": [
        {
          "internalType": "uint256",
          "name": "id",
          "type": "uint256"
        },
        {
          "internalType": "string",
          "name": "question",
          "type": "string"
        },
        {
          "internalType": "uint256",
          "name": "commitEndTime",
          "type": "uint256"
        },
        {
          "internalType": "uint256",
          "name": "revealEndTime",
          "type": "uint256"
        },
        {
          "internalType": "uint256",
          "name": "totalStake",
          "type": "uint256"
        },
        {
          "internalType": "bool",
          "name": "resolved",
          "type": "bool"
        },
        {
          "internalType": "uint256",
          "name": "winningOptionIndex",
          "type": "uint256"
        }
      ],
      "stateMutability": "view",
      "type": "function"
    },
    {
      "inputs": [
        {
          "internalType": "uint256",
          "name": "_pollId",
          "type": "uint256"
        }
      ],
      "name": "resolvePoll",
      "outputs": [],
      "stateMutability": "nonpayable",
      "type": "function"
    },
    {
      "inputs": [
        {
          "internalType": "uint256",
          "name": "_pollId",
          "type": "uint256"
        },
        {
          "internalType": "uint256",
          "name": "_commitmentIndex",
          "type": "uint256"
        },
        {
          "internalType": "uint256",
          "name": "_optionIndex",
          "type": "uint256"
        },
        {
          "internalType": "bytes32",
          "name": "_salt",
          "type": "bytes32"
        }
      ],
      "name": "revealVote",
      "outputs": [],
      "stateMutability": "nonpayable",
      "type": "function"
    },
    {
      "inputs": [
        {
          "internalType": "uint256",
          "name": "",
          "type": "uint256"
        },
        {
          "internalType": "address",
          "name": "",
          "type": "address"
        },
        {
          "internalType": "uint256",
          "name": "",
          "type": "uint256"
        }
      ],
      "name": "rewardClaimed",
      "outputs": [
        {
          "internalType": "bool",
          "name": "",
          "type": "bool"
        }
      ],
      "stateMutability": "view",
      "type": "function"
    },
    {
      "inputs": [],
      "name": "usdToken",
      "outputs": [
        {
          "internalType": "contract IERC20",
          "name": "",
          "type": "address"
        }
      ],
      "stateMutability": "view",
      "type": "function"
    },
    {
      "inputs": [
        {
          "internalType": "uint256",
          "name": "",
          "type": "uint256"
        },
        {
          "internalType": "address",
          "name": "",
          "type": "address"
        },
        {
          "internalType": "uint256",
          "name": "",
          "type": "uint256"
        }
      ],
      "name": "votes",
      "outputs": [
        {
          "internalType": "uint256",
          "name": "",
          "type": "uint256"
        }
      ],
      "stateMutability": "view",
      "type": "function"
    }
  ],
  "bytecode": "0x60806040523480156200001157600080fd5b50604051620028a5380380620028a58339818101604052810190620000379190620000e8565b806000806101000a81548173ffffffffffffffffffffffffffffffffffffffff021916908373ffffffffffffffffffffffffffffffffffffffff160217905550506200011a565b600080fd5b600073ffffffffffffffffffffffffffffffffffffffff82169050919050565b6000620000b08262000083565b9050919050565b620000c281620000a3565b8114620000ce57600080fd5b50565b600081519050620000e281620000b7565b92915050565b6000602082840312156200010157620001006200007e565b5b60006200011184828501620000d1565b91505092915050565b61277b806200012a6000396000f3fe608060405234801561001057600080fd5b50600436106100f55760003560e01c8063973a8bb111610097578063e74fef3711610066578063e74fef37146102ae578063f7562765146102ca578063f897a22b146102fa578063faf5625f14610318576100f5565b8063973a8bb1146102105780639da6918014610240578063ac2f00741461025c578063b08461e614610292576100f5565b806371192b17116100d357806371192b171461017857806378310bca146101a85780637a061a0c146101d857806386bb8f37146101f4576100f5565b80632b786571146100fa5780634bedab1914610118578063517f5c3414610148575b600080fd5b610102610336565b60405161010f919061143e565b60405180910390f35b610132600480360381019061012d9190611499565b61033c565b60405161013f919061143e565b60405180910390f35b610162600480360381019061015d9190611537565b610361565b60405161016f91906115a5565b60405180910390f35b610192600480360381019061018d9190611537565b6103d1565b60405161019f91906115a5565b60405180910390f35b6101c260048036038101906101bd9190611537565b61040d565b6040516101cf919061143e565b60405180910390f35b6101f260048036038101906101ed91906117ec565b61043f565b005b61020e60048036038101906102099190611499565b61051e565b005b61022a60048036038101906102259190611537565b610838565b60405161023791906118a4565b60405180910390f35b61025a600480360381019061025591906118eb565b610876565b005b6102766004803603810190610271919061192b565b6109ff565b60405161028997969594939291906119d7565b60405180910390f35b6102ac60048036038101906102a79190611a4d565b610ad6565b005b6102c860048036038101906102c3919061192b565b610eda565b005b6102e460048036038101906102df919061192b565b61108f565b6040516102f19190611bc0565b60405180910390f35b61030261117e565b60405161030f9190611c41565b60405180910390f35b6103206111a2565b60405161032d919061143e565b60405180910390f35b60055481565b6003602052816000526040600020602052806000526040600020600091509150505481565b6000806002600086815260200190815260200160002060008573ffffffffffffffffffffffffffffffffffffffff1673ffffffffffffffffffffffffffffffffffffffff168152602001908152602001600020600084815260200190815260200160002054141590509392505050565b6004602052826000526040600020602052816000526040600020602052806000526040600020600092509250509054906101000a900460ff1681565b600260205282600052604060002060205281600052604060002060205280600052604060002060009250925050505481565b60006005600081548092919061045490611c8b565b91905055905060006006600083815260200190815260200160002090508181600001819055508581600101908161048b9190611ed5565b50848160020190805190602001906104a492919061134b565b5083426104b19190611fa7565b81600301819055508284426104c69190611fa7565b6104d09190611fa7565b8160040181905550817fc3ad3dd4f77bea708d7c21b918efa79c536b30c5048924662db7a2bd96f4831687836003015460405161050e929190611fdb565b60405180910390a2505050505050565b60006006600084815260200190815260200160002090508060060160009054906101000a900460ff16610586576040517f08c379a000000000000000000000000000000000000000000000000000000000815260040161057d90612057565b60405180910390fd5b600181600701546105979190611fa7565b6002600085815260200190815260200160002060003373ffffffffffffffffffffffffffffffffffffffff1673ffffffffffffffffffffffffffffffffffffffff16815260200190815260200160002060008481526020019081526020016000205414610639576040517f08c379a0000000000000000000000000000000000000000000000000000000008152600401610630906120c3565b60405180910390fd5b6004600084815260200190815260200160002060003373ffffffffffffffffffffffffffffffffffffffff1673ffffffffffffffffffffffffffffffffffffffff168152602001908152602001600020600083815260200190815260200160002060009054906101000a900460ff16156106e8576040517f08c379a00000000000000000000000000000000000000000000000000000000081526004016106df9061212f565b60405180910390fd5b60006003600085815260200190815260200160002060008360070154815260200190815260200160002054905060008111610758576040517f08c379a000000000000000000000000000000000000000000000000000000000815260040161074f9061219b565b60405180910390fd5b600081836005015461076a91906121ea565b905060016004600087815260200190815260200160002060003373ffffffffffffffffffffffffffffffffffffffff1673ffffffffffffffffffffffffffffffffffffffff168152602001908152602001600020600086815260200190815260200160002060006101000a81548160ff021916908315150217905550610831338260008054906101000a900473ffffffffffffffffffffffffffffffffffffffff1673ffffffffffffffffffffffffffffffffffffffff166111a89092919063ffffffff16565b5050505050565b6001602052826000526040600020602052816000526040600020818154811061086057600080fd5b9060005260206000200160009250925050505481565b6000600660008481526020019081526020016000209050806003015442106108d3576040517f08c379a00000000000000000000000000000000000000000000000000000000081526004016108ca90612267565b60405180910390fd5b61092233306103e860008054906101000a900473ffffffffffffffffffffffffffffffffffffffff1673ffffffffffffffffffffffffffffffffffffffff16611227909392919063ffffffff16565b6103e88160050160008282546109389190611fa7565b925050819055506001600084815260200190815260200160002060003373ffffffffffffffffffffffffffffffffffffffff1673ffffffffffffffffffffffffffffffffffffffff1681526020019081526020016000208290806001815401808255809150506001900390600052602060002001600090919091909150553373ffffffffffffffffffffffffffffffffffffffff16837f3834a2c8ea101e1468b529270d35fbff0a12de32a5a7e5729b8b4dad6fb32c0160405160405180910390a3505050565b6006602052806000526040600020600091509050806000015490806001018054610a2890611d02565b80601f0160208091040260200160405190810160405280929190818152602001828054610a5490611d02565b8015610aa15780601f10610a7657610100808354040283529160200191610aa1565b820191906000526020600020905b815481529060010190602001808311610a8457829003601f168201915b5050505050908060030154908060040154908060050154908060060160009054906101000a900460ff16908060070154905087565b60006006600086815260200190815260200160002090508060030154421015610b34576040517f08c379a0000000000000000000000000000000000000000000000000000000008152600401610b2b906122d3565b60405180910390fd5b80600401544210610b7a576040517f08c379a0000000000000000000000000000000000000000000000000000000008152600401610b719061233f565b60405180910390fd5b836001600087815260200190815260200160002060003373ffffffffffffffffffffffffffffffffffffffff1673ffffffffffffffffffffffffffffffffffffffff1681526020019081526020016000208054905011610c0f576040517f08c379a0000000000000000000000000000000000000000000000000000000008152600401610c06906123ab565b60405180910390fd5b60006002600087815260200190815260200160002060003373ffffffffffffffffffffffffffffffffffffffff1673ffffffffffffffffffffffffffffffffffffffff16815260200190815260200160002060008681526020019081526020016000205414610cb3576040517f08c379a0000000000000000000000000000000000000000000000000000000008152600401610caa90612417565b60405180910390fd5b82816002018054905011610cfc576040517f08c379a0000000000000000000000000000000000000000000000000000000008152600401610cf390612483565b60405180910390fd5b60008383604051602001610d119291906124e5565b6040516020818303038152906040528051906020012090506001600087815260200190815260200160002060003373ffffffffffffffffffffffffffffffffffffffff1673ffffffffffffffffffffffffffffffffffffffff1681526020019081526020016000208581548110610d8b57610d8a612511565b5b90600052602060002001548114610dd7576040517f08c379a0000000000000000000000000000000000000000000000000000000008152600401610dce9061258c565b60405180910390fd5b600184610de49190611fa7565b6002600088815260200190815260200160002060003373ffffffffffffffffffffffffffffffffffffffff1673ffffffffffffffffffffffffffffffffffffffff1681526020019081526020016000206000878152602001908152602001600020819055506003600087815260200190815260200160002060008581526020019081526020016000206000815480929190610e7e90611c8b565b91905055503373ffffffffffffffffffffffffffffffffffffffff16867fd5232b050e3221ade5a3653733191681ef3bde39c4530d87c9bb74004f99dadc86604051610eca919061143e565b60405180910390a3505050505050565b60006006600083815260200190815260200160002090508060040154421015610f38576040517f08c379a0000000000000000000000000000000000000000000000000000000008152600401610f2f906125f8565b60405180910390fd5b8060060160009054906101000a900460ff1615610f8a576040517f08c379a0000000000000000000000000000000000000000000000000000000008152600401610f8190612664565b60405180910390fd5b6000806000805b846002018054905081101561100857600060036000888152602001908152602001600020600083815260200190815260200160002054905084811115610fe05780945081935060009250610ffa565b8481148015610fef5750600085115b15610ff957600192505b5b508080600101915050610f91565b50600083118015611017575080155b156110875781846007018190555060018460060160006101000a81548160ff021916908315150217905550847f0a65a31222d4c537fe1231c104b70495998ef0979f26ccb3440810cf056d686f8386600501548660405161107a93929190612684565b60405180910390a2611088565b5b5050505050565b606060066000838152602001908152602001600020600201805480602002602001604051908101604052809291908181526020016000905b828210156111735783829060005260206000200180546110e690611d02565b80601f016020809104026020016040519081016040528092919081815260200182805461111290611d02565b801561115f5780601f106111345761010080835404028352916020019161115f565b820191906000526020600020905b81548152906001019060200180831161114257829003601f168201915b5050505050815260200190600101906110c7565b505050509050919050565b60008054906101000a900473ffffffffffffffffffffffffffffffffffffffff1681565b6103e881565b611222838473ffffffffffffffffffffffffffffffffffffffff1663a9059cbb85856040516024016111db9291906126ca565b604051602081830303815290604052915060e01b6020820180517bffffffffffffffffffffffffffffffffffffffffffffffffffffffff83818316178352505050506112a9565b505050565b6112a3848573ffffffffffffffffffffffffffffffffffffffff166323b872dd86868660405160240161125c939291906126f3565b604051602081830303815290604052915060e01b6020820180517bffffffffffffffffffffffffffffffffffffffffffffffffffffffff83818316178352505050506112a9565b50505050565b600080602060008451602086016000885af1806112cc576040513d6000823e3d81fd5b3d9250600051915050600082146112e7576001811415611303565b60008473ffffffffffffffffffffffffffffffffffffffff163b145b1561134557836040517f5274afe700000000000000000000000000000000000000000000000000000000815260040161133c919061272a565b60405180910390fd5b50505050565b828054828255906000526020600020908101928215611393579160200282015b828111156113925782518290816113829190611ed5565b509160200191906001019061136b565b5b5090506113a091906113a4565b5090565b5b808211156113c457600081816113bb91906113c8565b506001016113a5565b5090565b5080546113d490611d02565b6000825580601f106113e65750611405565b601f0160209004906000526020600020908101906114049190611408565b5b50565b5b80821115611421576000816000905550600101611409565b5090565b6000819050919050565b61143881611425565b82525050565b6000602082019050611453600083018461142f565b92915050565b6000604051905090565b600080fd5b600080fd5b61147681611425565b811461148157600080fd5b50565b6000813590506114938161146d565b92915050565b600080604083850312156114b0576114af611463565b5b60006114be85828601611484565b92505060206114cf85828601611484565b9150509250929050565b600073ffffffffffffffffffffffffffffffffffffffff82169050919050565b6000611504826114d9565b9050919050565b611514816114f9565b811461151f57600080fd5b50565b6000813590506115318161150b565b92915050565b6000806000606084860312156115505761154f611463565b5b600061155e86828701611484565b935050602061156f86828701611522565b925050604061158086828701611484565b9150509250925092565b60008115159050919050565b61159f8161158a565b82525050565b60006020820190506115ba6000830184611596565b92915050565b600080fd5b600080fd5b6000601f19601f8301169050919050565b7f4e487b7100000000000000000000000000000000000000000000000000000000600052604160045260246000fd5b611613826115ca565b810181811067ffffffffffffffff82111715611632576116316115db565b5b80604052505050565b6000611645611459565b9050611651828261160a565b919050565b600067ffffffffffffffff821115611671576116706115db565b5b61167a826115ca565b9050602081019050919050565b82818337600083830152505050565b60006116a96116a484611656565b61163b565b9050828152602081018484840111156116c5576116c46115c5565b5b6116d0848285611687565b509392505050565b600082601f8301126116ed576116ec6115c0565b5b81356116fd848260208601611696565b91505092915050565b600067ffffffffffffffff821115611721576117206115db565b5b602082029050602081019050919050565b600080fd5b600061174a61174584611706565b61163b565b9050808382526020820190506020840283018581111561176d5761176c611732565b5b835b818110156117b457803567ffffffffffffffff811115611792576117916115c0565b5b80860161179f89826116d8565b8552602085019450505060208101905061176f565b5050509392505050565b600082601f8301126117d3576117d26115c0565b5b81356117e3848260208601611737565b91505092915050565b6000806000806080858703121561180657611805611463565b5b600085013567ffffffffffffffff81111561182457611823611468565b5b611830878288016116d8565b945050602085013567ffffffffffffffff81111561185157611850611468565b5b61185d878288016117be565b935050604061186e87828801611484565b925050606061187f87828801611484565b91505092959194509250565b6000819050919050565b61189e8161188b565b82525050565b60006020820190506118b96000830184611895565b92915050565b6118c88161188b565b81146118d357600080fd5b50565b6000813590506118e5816118bf565b92915050565b6000806040838503121561190257611901611463565b5b600061191085828601611484565b9250506020611921858286016118d6565b9150509250929050565b60006020828403121561194157611940611463565b5b600061194f84828501611484565b91505092915050565b600081519050919050565b600082825260208201905092915050565b60005b83811015611992578082015181840152602081019050611977565b60008484015250505050565b60006119a982611958565b6119b38185611963565b93506119c3818560208601611974565b6119cc816115ca565b840191505092915050565b600060e0820190506119ec600083018a61142f565b81810360208301526119fe818961199e565b9050611a0d604083018861142f565b611a1a606083018761142f565b611a27608083018661142f565b611a3460a0830185611596565b611a4160c083018461142f565b98975050505050505050565b60008060008060808587031215611a6757611a66611463565b5b6000611a7587828801611484565b9450506020611a8687828801611484565b9350506040611a9787828801611484565b9250506060611aa8878288016118d6565b91505092959194509250565b600081519050919050565b600082825260208201905092915050565b6000819050602082019050919050565b600082825260208201905092915050565b6000611afc82611958565b611b068185611ae0565b9350611b16818560208601611974565b611b1f816115ca565b840191505092915050565b6000611b368383611af1565b905092915050565b6000602082019050919050565b6000611b5682611ab4565b611b608185611abf565b935083602082028501611b7285611ad0565b8060005b85811015611bae5784840389528151611b8f8582611b2a565b9450611b9a83611b3e565b925060208a01995050600181019050611b76565b50829750879550505050505092915050565b60006020820190508181036000830152611bda8184611b4b565b905092915050565b6000819050919050565b6000611c07611c02611bfd846114d9565b611be2565b6114d9565b9050919050565b6000611c1982611bec565b9050919050565b6000611c2b82611c0e565b9050919050565b611c3b81611c20565b82525050565b6000602082019050611c566000830184611c32565b92915050565b7f4e487b7100000000000000000000000000000000000000000000000000000000600052601160045260246000fd5b6000611c9682611425565b91507fffffffffffffffffffffffffffffffffffffffffffffffffffffffffffffffff8203611cc857611cc7611c5c565b5b600182019050919050565b7f4e487b7100000000000000000000000000000000000000000000000000000000600052602260045260246000fd5b60006002820490506001821680611d1a57607f821691505b602082108103611d2d57611d2c611cd3565b5b50919050565b60008190508160005260206000209050919050565b60006020601f8301049050919050565b600082821b905092915050565b600060088302611d957fffffffffffffffffffffffffffffffffffffffffffffffffffffffffffffffff82611d58565b611d9f8683611d58565b95508019841693508086168417925050509392505050565b6000611dd2611dcd611dc884611425565b611be2565b611425565b9050919050565b6000819050919050565b611dec83611db7565b611e00611df882611dd9565b848454611d65565b825550505050565b600090565b611e15611e08565b611e20818484611de3565b505050565b5b81811015611e4457611e39600082611e0d565b600181019050611e26565b5050565b601f821115611e8957611e5a81611d33565b611e6384611d48565b81016020851015611e72578190505b611e86611e7e85611d48565b830182611e25565b50505b505050565b600082821c905092915050565b6000611eac60001984600802611e8e565b1980831691505092915050565b6000611ec58383611e9b565b9150826002028217905092915050565b611ede82611958565b67ffffffffffffffff811115611ef757611ef66115db565b5b611f018254611d02565b611f0c828285611e48565b600060209050601f831160018114611f3f5760008415611f2d578287015190505b611f378582611eb9565b865550611f9f565b601f198416611f4d86611d33565b60005b82811015611f7557848901518255600182019150602085019450602081019050611f50565b86831015611f925784890151611f8e601f891682611e9b565b8355505b6001600288020188555050505b505050505050565b6000611fb282611425565b9150611fbd83611425565b9250828201905080821115611fd557611fd4611c5c565b5b92915050565b60006040820190508181036000830152611ff5818561199e565b9050612004602083018461142f565b9392505050565b7f506f6c6c206e6f74207265736f6c766564000000000000000000000000000000600082015250565b6000612041601183611963565b915061204c8261200b565b602082019050919050565b6000602082019050818103600083015261207081612034565b9050919050565b7f596f7520646964206e6f742077696e206174207468697320696e646578000000600082015250565b60006120ad601d83611963565b91506120b882612077565b602082019050919050565b600060208201905081810360008301526120dc816120a0565b9050919050565b7f416c726561647920636c61696d65640000000000000000000000000000000000600082015250565b6000612119600f83611963565b9150612124826120e3565b602082019050919050565b600060208201905081810360008301526121488161210c565b9050919050565b7f4e6f2077696e6e6572733f204572726f722e0000000000000000000000000000600082015250565b6000612185601283611963565b91506121908261214f565b602082019050919050565b600060208201905081810360008301526121b481612178565b9050919050565b7f4e487b7100000000000000000000000000000000000000000000000000000000600052601260045260246000fd5b60006121f582611425565b915061220083611425565b9250826122105761220f6121bb565b5b828204905092915050565b7f436f6d6d697420706861736520656e6465640000000000000000000000000000600082015250565b6000612251601283611963565b915061225c8261221b565b602082019050919050565b6000602082019050818103600083015261228081612244565b9050919050565b7f436f6d6d6974207068617365206e6f7420656e64656400000000000000000000600082015250565b60006122bd601683611963565b91506122c882612287565b602082019050919050565b600060208201905081810360008301526122ec816122b0565b9050919050565b7f52657665616c20706861736520656e6465640000000000000000000000000000600082015250565b6000612329601283611963565b9150612334826122f3565b602082019050919050565b600060208201905081810360008301526123588161231c565b9050919050565b7f496e76616c696420636f6d6d69746d656e7420696e6465780000000000000000600082015250565b6000612395601883611963565b91506123a08261235f565b602082019050919050565b600060208201905081810360008301526123c481612388565b9050919050565b7f416c72656164792072657665616c656400000000000000000000000000000000600082015250565b6000612401601083611963565b915061240c826123cb565b602082019050919050565b60006020820190508181036000830152612430816123f4565b9050919050565b7f496e76616c6964206f7074696f6e20696e646578000000000000000000000000600082015250565b600061246d601483611963565b915061247882612437565b602082019050919050565b6000602082019050818103600083015261249c81612460565b9050919050565b6000819050919050565b6124be6124b982611425565b6124a3565b82525050565b6000819050919050565b6124df6124da8261188b565b6124c4565b82525050565b60006124f182856124ad565b60208201915061250182846124ce565b6020820191508190509392505050565b7f4e487b7100000000000000000000000000000000000000000000000000000000600052603260045260246000fd5b7f48617368206d69736d6174636800000000000000000000000000000000000000600082015250565b6000612576600d83611963565b915061258182612540565b602082019050919050565b600060208201905081810360008301526125a581612569565b9050919050565b7f52657665616c207068617365206e6f7420656e64656400000000000000000000600082015250565b60006125e2601683611963565b91506125ed826125ac565b602082019050919050565b60006020820190508181036000830152612611816125d5565b9050919050565b7f416c7265616479207265736f6c76656400000000000000000000000000000000600082015250565b600061264e601083611963565b915061265982612618565b602082019050919050565b6000602082019050818103600083015261267d81612641565b9050919050565b6000606082019050612699600083018661142f565b6126a6602083018561142f565b6126b3604083018461142f565b949350505050565b6126c4816114f9565b82525050565b60006040820190506126df60008301856126bb565b6126ec602083018461142f565b9392505050565b600060608201905061270860008301866126bb565b61271560208301856126bb565b612722604083018461142f565b949350505050565b600060208201905061273f60008301846126bb565b9291505056fea2646970667358221220a83839e30f0e9a6c5b9b5a38f40ea17a9e5a52021d75c18f7bff7f01dd146a3064736f6c63430008180033",
  "linkReferences": {},
  "deployedLinkReferences": {}
}