{
  "_format": "hh-sol-artifact-1",
  "contractName": "OraclePoll",
  "sourceName": "contracts/OraclePoll.sol",
  "abi": [
    {
      "inputs": [
        {
          "internalType": "address",
          "name": "_usdToken",
          "type": "address"
        }
      ],
      "stateMutability": "nonpayable",
      "type": "constructor"
    },
    {
      "inputs": [
        {
          "internalType": "address",
          "name": "token",
          "type": "address"
        }
      ],
      "name": "SafeERC20FailedOperation",
      "type": "error"
    },
    {
      "anonymous": false,
      "inputs": [
        {
          "indexed": true,
          "internalType": "uint256",
          "name": "pollId",
          "type": "uint256"
        },
        {
          "indexed": false,
          "internalType": "string",
          "name": "question",
          "type": "string"
        },
        {
          "indexed": false,
          "internalType": "uint256",
          "name": "commitEndTime",
          "type": "uint256"
        }
      ],
      "name": "PollCreated",
      "type": "event"
    },
    {
      "anonymous": false,
      "inputs": [
        {
          "indexed": true,
          "internalType": "uint256",
          "name": "pollId",
          "type": "uint256"
        },
        {
          "indexed": false,
          "internalType": "uint256",
          "name": "winningOptionIndex",
          "type": "uint256"
        },
        {
          "indexed": false,
          "internalType": "uint256",
          "name": "totalStake",
          "type": "uint256"
        },
        {
          "indexed": false,
          "internalType": "uint256",
          "name": "winnerCount",
          "type": "uint256"
        }
      ],
      "name": "PollResolved",
      "type": "event"
    },
    {
      "anonymous": false,
      "inputs": [
        {
          "indexed": true,
          "internalType": "address",
          "name": "user",
          "type": "address"
        },
        {
          "indexed": false,
          "internalType": "uint256",
          "name": "expiryTimestamp",
          "type": "uint256"
        }
      ],
      "name": "PremiumPurchased",
      "type": "event"
    },
    {
      "anonymous": false,
      "inputs": [
        {
          "indexed": true,
          "internalType": "uint256",
          "name": "pollId",
          "type": "uint256"
        },
        {
          "indexed": true,
          "internalType": "address",
          "name": "voter",
          "type": "address"
        }
      ],
      "name": "VoteCommitted",
      "type": "event"
    },
    {
      "anonymous": false,
      "inputs": [
        {
          "indexed": true,
          "internalType": "uint256",
          "name": "pollId",
          "type": "uint256"
        },
        {
          "indexed": true,
          "internalType": "address",
          "name": "voter",
          "type": "address"
        },
        {
          "indexed": false,
          "internalType": "uint256",
          "name": "optionIndex",
          "type": "uint256"
        }
      ],
      "name": "VoteRevealed",
      "type": "event"
    },
    {
      "inputs": [],
      "name": "COST_30_DAYS",
      "outputs": [
        {
          "internalType": "uint256",
          "name": "",
          "type": "uint256"
        }
      ],
      "stateMutability": "view",
      "type": "function"
    },
    {
      "inputs": [],
      "name": "COST_7_DAYS",
      "outputs": [
        {
          "internalType": "uint256",
          "name": "",
          "type": "uint256"
        }
      ],
      "stateMutability": "view",
      "type": "function"
    },
    {
      "inputs": [],
      "name": "STAKE_AMOUNT",
      "outputs": [
        {
          "internalType": "uint256",
          "name": "",
          "type": "uint256"
        }
      ],
      "stateMutability": "view",
      "type": "function"
    },
    {
      "inputs": [],
      "name": "admin",
      "outputs": [
        {
          "internalType": "address",
          "name": "",
          "type": "address"
        }
      ],
      "stateMutability": "view",
      "type": "function"
    },
    {
      "inputs": [
        {
          "internalType": "uint256",
          "name": "_pollId",
          "type": "uint256"
        },
        {
          "internalType": "address",
          "name": "_voter",
          "type": "address"
        },
        {
          "internalType": "uint256",
          "name": "_commitmentIndex",
          "type": "uint256"
        }
      ],
      "name": "adminClaimReward",
      "outputs": [],
      "stateMutability": "nonpayable",
      "type": "function"
    },
    {
      "inputs": [
        {
          "internalType": "uint256",
          "name": "_pollId",
          "type": "uint256"
        },
        {
          "internalType": "address",
          "name": "_voter",
          "type": "address"
        },
        {
          "internalType": "uint256",
          "name": "_commitmentIndex",
          "type": "uint256"
        },
        {
          "internalType": "uint256",
          "name": "_optionIndex",
          "type": "uint256"
        },
        {
          "internalType": "bytes32",
          "name": "_salt",
          "type": "bytes32"
        }
      ],
      "name": "adminRevealVote",
      "outputs": [],
      "stateMutability": "nonpayable",
      "type": "function"
    },
    {
      "inputs": [
        {
          "internalType": "uint256",
          "name": "_days",
          "type": "uint256"
        }
      ],
      "name": "buyPremium",
      "outputs": [],
      "stateMutability": "nonpayable",
      "type": "function"
    },
    {
      "inputs": [
        {
          "internalType": "uint256",
          "name": "_pollId",
          "type": "uint256"
        },
        {
          "internalType": "uint256",
          "name": "_commitmentIndex",
          "type": "uint256"
        }
      ],
      "name": "claimReward",
      "outputs": [],
      "stateMutability": "nonpayable",
      "type": "function"
    },
    {
      "inputs": [
        {
          "internalType": "uint256",
          "name": "_pollId",
          "type": "uint256"
        },
        {
          "internalType": "bytes32",
          "name": "_voteHash",
          "type": "bytes32"
        }
      ],
      "name": "commitVote",
      "outputs": [],
      "stateMutability": "nonpayable",
      "type": "function"
    },
    {
      "inputs": [
        {
          "internalType": "uint256",
          "name": "",
          "type": "uint256"
        },
        {
          "internalType": "address",
          "name": "",
          "type": "address"
        },
        {
          "internalType": "uint256",
          "name": "",
          "type": "uint256"
        }
      ],
      "name": "commitments",
      "outputs": [
        {
          "internalType": "bytes32",
          "name": "",
          "type": "bytes32"
        }
      ],
      "stateMutability": "view",
      "type": "function"
    },
    {
      "inputs": [
        {
          "internalType": "string",
          "name": "_question",
          "type": "string"
        },
        {
          "internalType": "string[]",
          "name": "_options",
          "type": "string[]"
        },
        {
          "internalType": "uint256",
          "name": "_commitDuration",
          "type": "uint256"
        },
        {
          "internalType": "uint256",
          "name": "_revealDuration",
          "type": "uint256"
        }
      ],
      "name": "createPoll",
      "outputs": [],
      "stateMutability": "nonpayable",
      "type": "function"
    },
    {
      "inputs": [
        {
          "internalType": "uint256",
          "name": "_pollId",
          "type": "uint256"
        }
      ],
      "name": "getPollOptions",
      "outputs": [
        {
          "internalType": "string[]",
          "name": "",
          "type": "string[]"
        }
      ],
      "stateMutability": "view",
      "type": "function"
    },
    {
      "inputs": [
        {
          "internalType": "uint256",
          "name": "_pollId",
          "type": "uint256"
        },
        {
          "internalType": "address",
          "name": "_voter",
          "type": "address"
        },
        {
          "internalType": "uint256",
          "name": "_commitmentIndex",
          "type": "uint256"
        }
      ],
      "name": "hasRevealed",
      "outputs": [
        {
          "internalType": "bool",
          "name": "",
          "type": "bool"
        }
      ],
      "stateMutability": "view",
      "type": "function"
    },
    {
      "inputs": [
        {
          "internalType": "address",
          "name": "_user",
          "type": "address"
        }
      ],
      "name": "isPremium",
      "outputs": [
        {
          "internalType": "bool",
          "name": "",
          "type": "bool"
        }
      ],
      "stateMutability": "view",
      "type": "function"
    },
    {
      "inputs": [],
      "name": "nextPollId",
      "outputs": [
        {
          "internalType": "uint256",
          "name": "",
          "type": "uint256"
        }
      ],
      "stateMutability": "view",
      "type": "function"
    },
    {
      "inputs": [
        {
          "internalType": "uint256",
          "name": "",
          "type": "uint256"
        },
        {
          "internalType": "uint256",
          "name": "",
          "type": "uint256"
        }
      ],
      "name": "optionTallies",
      "outputs": [
        {
          "internalType": "uint256",
          "name": "",
          "type": "uint256"
        }
      ],
      "stateMutability": "view",
      "type": "function"
    },
    {
      "inputs": [
        {
          "internalType": "uint256",
          "name": "",
          "type": "uint256"
        }
      ],
      "name": "polls",
      "outputs": [
        {
          "internalType": "uint256",
          "name": "id",
          "type": "uint256"
        },
        {
          "internalType": "string",
          "name": "question",
          "type": "string"
        },
        {
          "internalType": "uint256",
          "name": "commitEndTime",
          "type": "uint256"
        },
        {
          "internalType": "uint256",
          "name": "revealEndTime",
          "type": "uint256"
        },
        {
          "internalType": "uint256",
          "name": "totalStake",
          "type": "uint256"
        },
        {
          "internalType": "bool",
          "name": "resolved",
          "type": "bool"
        },
        {
          "internalType": "uint256",
          "name": "winningOptionIndex",
          "type": "uint256"
        }
      ],
      "stateMutability": "view",
      "type": "function"
    },
    {
      "inputs": [
        {
          "internalType": "address",
          "name": "",
          "type": "address"
        }
      ],
      "name": "premiumExpiry",
      "outputs": [
        {
          "internalType": "uint256",
          "name": "",
          "type": "uint256"
        }
      ],
      "stateMutability": "view",
      "type": "function"
    },
    {
      "inputs": [
        {
          "internalType": "uint256",
          "name": "_pollId",
          "type": "uint256"
        }
      ],
      "name": "resolvePoll",
      "outputs": [],
      "stateMutability": "nonpayable",
      "type": "function"
    },
    {
      "inputs": [
        {
          "internalType": "uint256",
          "name": "_pollId",
          "type": "uint256"
        },
        {
          "internalType": "uint256",
          "name": "_commitmentIndex",
          "type": "uint256"
        },
        {
          "internalType": "uint256",
          "name": "_optionIndex",
          "type": "uint256"
        },
        {
          "internalType": "bytes32",
          "name": "_salt",
          "type": "bytes32"
        }
      ],
      "name": "revealVote",
      "outputs": [],
      "stateMutability": "nonpayable",
      "type": "function"
    },
    {
      "inputs": [
        {
          "internalType": "uint256",
          "name": "",
          "type": "uint256"
        },
        {
          "internalType": "address",
          "name": "",
          "type": "address"
        },
        {
          "internalType": "uint256",
          "name": "",
          "type": "uint256"
        }
      ],
      "name": "rewardClaimed",
      "outputs": [
        {
          "internalType": "bool",
          "name": "",
          "type": "bool"
        }
      ],
      "stateMutability": "view",
      "type": "function"
    },
    {
      "inputs": [],
      "name": "usdToken",
      "outputs": [
        {
          "internalType": "contract IERC20",
          "name": "",
          "type": "address"
        }
      ],
      "stateMutability": "view",
      "type": "function"
    },
    {
      "inputs": [
        {
          "internalType": "uint256",
          "name": "",
          "type": "uint256"
        },
        {
          "internalType": "address",
          "name": "",
          "type": "address"
        },
        {
          "internalType": "uint256",
          "name": "",
          "type": "uint256"
        }
      ],
      "name": "votes",
      "outputs": [
        {
          "internalType": "uint256",
          "name": "",
          "type": "uint256"
        }
      ],
      "stateMutability": "view",
      "type": "function"
    }
  ],
  "bytecode": "0x60806040523480156200001157600080fd5b506040516200399338038062003993833981810160405281019062000037919062000129565b806000806101000a81548173ffffffffffffffffffffffffffffffffffffffff021916908373ffffffffffffffffffffffffffffffffffffffff16021790555033600860006101000a81548173ffffffffffffffffffffffffffffffffffffffff021916908373ffffffffffffffffffffffffffffffffffffffff160217905550506200015b565b600080fd5b600073ffffffffffffffffffffffffffffffffffffffff82169050919050565b6000620000f182620000c4565b9050919050565b6200010381620000e4565b81146200010f57600080fd5b50565b6000815190506200012381620000f8565b92915050565b600060208284031215620001425762000141620000bf565b5b6000620001528482850162000112565b91505092915050565b613828806200016b6000396000f3fe608060405234801561001057600080fd5b506004361061014d5760003560e01c806386bb8f37116100c3578063e91dde0e1161007c578063e91dde0e146103d6578063f0f30fc8146103f4578063f756276514610412578063f851a44014610442578063f897a22b14610460578063faf5625f1461047e5761014d565b806386bb8f3714610300578063973a8bb11461031c5780639da691801461034c578063ac2f007414610368578063b08461e61461039e578063e74fef37146103ba5761014d565b8063614223db11610115578063614223db146102085780636b36805c1461023857806371192b1714610254578063742fe0d41461028457806378310bca146102b45780637a061a0c146102e45761014d565b806309db62fa146101525780632b7865711461016e5780633dce3d031461018c5780634bedab19146101a8578063517f5c34146101d8575b600080fd5b61016c60048036038101906101679190612284565b61049c565b005b610176610979565b604051610183919061230e565b60405180910390f35b6101a660048036038101906101a19190612329565b61097f565b005b6101c260048036038101906101bd9190612356565b610bee565b6040516101cf919061230e565b60405180910390f35b6101f260048036038101906101ed9190612396565b610c13565b6040516101ff9190612404565b60405180910390f35b610222600480360381019061021d919061241f565b610c83565b60405161022f919061230e565b60405180910390f35b610252600480360381019061024d9190612396565b610c9b565b005b61026e60048036038101906102699190612396565b61108e565b60405161027b9190612404565b60405180910390f35b61029e6004803603810190610299919061241f565b6110ca565b6040516102ab9190612404565b60405180910390f35b6102ce60048036038101906102c99190612396565b611115565b6040516102db919061230e565b60405180910390f35b6102fe60048036038101906102f99190612678565b611147565b005b61031a60048036038101906103159190612356565b61126e565b005b61033660048036038101906103319190612396565b611588565b6040516103439190612726565b60405180910390f35b61036660048036038101906103619190612741565b6115c6565b005b610382600480360381019061037d9190612329565b61174f565b6040516103959796959493929190612800565b60405180910390f35b6103b860048036038101906103b39190612876565b611826565b005b6103d460048036038101906103cf9190612329565b611c2a565b005b6103de611ddf565b6040516103eb919061230e565b60405180910390f35b6103fc611de5565b604051610409919061230e565b60405180910390f35b61042c60048036038101906104279190612329565b611dea565b60405161043991906129e9565b60405180910390f35b61044a611ed9565b6040516104579190612a1a565b60405180910390f35b610468611eff565b6040516104759190612a94565b60405180910390f35b610486611f23565b604051610493919061230e565b60405180910390f35b600860009054906101000a900473ffffffffffffffffffffffffffffffffffffffff1673ffffffffffffffffffffffffffffffffffffffff163373ffffffffffffffffffffffffffffffffffffffff161461052c576040517f08c379a000000000000000000000000000000000000000000000000000000000815260040161052390612afb565b60405180910390fd5b610535846110ca565b610574576040517f08c379a000000000000000000000000000000000000000000000000000000000815260040161056b90612b67565b60405180910390fd5b600060066000878152602001908152602001600020905080600301544210156105d2576040517f08c379a00000000000000000000000000000000000000000000000000000000081526004016105c990612bd3565b60405180910390fd5b80600401544210610618576040517f08c379a000000000000000000000000000000000000000000000000000000000815260040161060f90612c3f565b60405180910390fd5b836001600088815260200190815260200160002060008773ffffffffffffffffffffffffffffffffffffffff1673ffffffffffffffffffffffffffffffffffffffff16815260200190815260200160002080549050116106ad576040517f08c379a00000000000000000000000000000000000000000000000000000000081526004016106a490612cab565b60405180910390fd5b60006002600088815260200190815260200160002060008773ffffffffffffffffffffffffffffffffffffffff1673ffffffffffffffffffffffffffffffffffffffff16815260200190815260200160002060008681526020019081526020016000205414610751576040517f08c379a000000000000000000000000000000000000000000000000000000000815260040161074890612d17565b60405180910390fd5b8281600201805490501161079a576040517f08c379a000000000000000000000000000000000000000000000000000000000815260040161079190612d83565b60405180910390fd5b600083836040516020016107af929190612de5565b6040516020818303038152906040528051906020012090506001600088815260200190815260200160002060008773ffffffffffffffffffffffffffffffffffffffff1673ffffffffffffffffffffffffffffffffffffffff168152602001908152602001600020858154811061082957610828612e11565b5b90600052602060002001548114610875576040517f08c379a000000000000000000000000000000000000000000000000000000000815260040161086c90612e8c565b60405180910390fd5b6001846108829190612edb565b6002600089815260200190815260200160002060008873ffffffffffffffffffffffffffffffffffffffff1673ffffffffffffffffffffffffffffffffffffffff168152602001908152602001600020600087815260200190815260200160002081905550600360008881526020019081526020016000206000858152602001908152602001600020600081548092919061091c90612f0f565b91905055508573ffffffffffffffffffffffffffffffffffffffff16877fd5232b050e3221ade5a3653733191681ef3bde39c4530d87c9bb74004f99dadc86604051610968919061230e565b60405180910390a350505050505050565b60055481565b60006007820361099257606490506109e0565b601e82036109a45761012c90506109df565b6040517f08c379a00000000000000000000000000000000000000000000000000000000081526004016109d690612fa3565b60405180910390fd5b5b610a4f33600860009054906101000a900473ffffffffffffffffffffffffffffffffffffffff168360008054906101000a900473ffffffffffffffffffffffffffffffffffffffff1673ffffffffffffffffffffffffffffffffffffffff16611f29909392919063ffffffff16565b42600760003373ffffffffffffffffffffffffffffffffffffffff1673ffffffffffffffffffffffffffffffffffffffff168152602001908152602001600020541115610aff576201518082610aa59190612fc3565b600760003373ffffffffffffffffffffffffffffffffffffffff1673ffffffffffffffffffffffffffffffffffffffff1681526020019081526020016000206000828254610af39190612edb565b92505081905550610b5d565b6201518082610b0e9190612fc3565b42610b199190612edb565b600760003373ffffffffffffffffffffffffffffffffffffffff1673ffffffffffffffffffffffffffffffffffffffff168152602001908152602001600020819055505b3373ffffffffffffffffffffffffffffffffffffffff167faac641193722e260ce312e714156cdc3510a4892fdb1b50ea84cb29a03418004600760003373ffffffffffffffffffffffffffffffffffffffff1673ffffffffffffffffffffffffffffffffffffffff16815260200190815260200160002054604051610be2919061230e565b60405180910390a25050565b6003602052816000526040600020602052806000526040600020600091509150505481565b6000806002600086815260200190815260200160002060008573ffffffffffffffffffffffffffffffffffffffff1673ffffffffffffffffffffffffffffffffffffffff168152602001908152602001600020600084815260200190815260200160002054141590509392505050565b60076020528060005260406000206000915090505481565b600860009054906101000a900473ffffffffffffffffffffffffffffffffffffffff1673ffffffffffffffffffffffffffffffffffffffff163373ffffffffffffffffffffffffffffffffffffffff1614610d2b576040517f08c379a0000000000000000000000000000000000000000000000000000000008152600401610d2290612afb565b60405180910390fd5b610d34826110ca565b610d73576040517f08c379a0000000000000000000000000000000000000000000000000000000008152600401610d6a90612b67565b60405180910390fd5b60006006600085815260200190815260200160002090508060060160009054906101000a900460ff16610ddb576040517f08c379a0000000000000000000000000000000000000000000000000000000008152600401610dd290613051565b60405180910390fd5b60018160070154610dec9190612edb565b6002600086815260200190815260200160002060008573ffffffffffffffffffffffffffffffffffffffff1673ffffffffffffffffffffffffffffffffffffffff16815260200190815260200160002060008481526020019081526020016000205414610e8e576040517f08c379a0000000000000000000000000000000000000000000000000000000008152600401610e85906130bd565b60405180910390fd5b6004600085815260200190815260200160002060008473ffffffffffffffffffffffffffffffffffffffff1673ffffffffffffffffffffffffffffffffffffffff168152602001908152602001600020600083815260200190815260200160002060009054906101000a900460ff1615610f3d576040517f08c379a0000000000000000000000000000000000000000000000000000000008152600401610f3490613129565b60405180910390fd5b60006003600086815260200190815260200160002060008360070154815260200190815260200160002054905060008111610fad576040517f08c379a0000000000000000000000000000000000000000000000000000000008152600401610fa490613195565b60405180910390fd5b6000818360050154610fbf91906131e4565b905060016004600088815260200190815260200160002060008773ffffffffffffffffffffffffffffffffffffffff1673ffffffffffffffffffffffffffffffffffffffff168152602001908152602001600020600086815260200190815260200160002060006101000a81548160ff021916908315150217905550611086858260008054906101000a900473ffffffffffffffffffffffffffffffffffffffff1673ffffffffffffffffffffffffffffffffffffffff16611fab9092919063ffffffff16565b505050505050565b6004602052826000526040600020602052816000526040600020602052806000526040600020600092509250509054906101000a900460ff1681565b600042600760008473ffffffffffffffffffffffffffffffffffffffff1673ffffffffffffffffffffffffffffffffffffffff16815260200190815260200160002054119050919050565b600260205282600052604060002060205281600052604060002060205280600052604060002060009250925050505481565b611150336110ca565b61118f576040517f08c379a000000000000000000000000000000000000000000000000000000000815260040161118690613287565b60405180910390fd5b6000600560008154809291906111a490612f0f565b9190505590506000600660008381526020019081526020016000209050818160000181905550858160010190816111db91906134a9565b50848160020190805190602001906111f49291906120cc565b5083426112019190612edb565b81600301819055508284426112169190612edb565b6112209190612edb565b8160040181905550817fc3ad3dd4f77bea708d7c21b918efa79c536b30c5048924662db7a2bd96f4831687836003015460405161125e92919061357b565b60405180910390a2505050505050565b60006006600084815260200190815260200160002090508060060160009054906101000a900460ff166112d6576040517f08c379a00000000000000000000000000000000000000000000000000000000081526004016112cd90613051565b60405180910390fd5b600181600701546112e79190612edb565b6002600085815260200190815260200160002060003373ffffffffffffffffffffffffffffffffffffffff1673ffffffffffffffffffffffffffffffffffffffff16815260200190815260200160002060008481526020019081526020016000205414611389576040517f08c379a0000000000000000000000000000000000000000000000000000000008152600401611380906135f7565b60405180910390fd5b6004600084815260200190815260200160002060003373ffffffffffffffffffffffffffffffffffffffff1673ffffffffffffffffffffffffffffffffffffffff168152602001908152602001600020600083815260200190815260200160002060009054906101000a900460ff1615611438576040517f08c379a000000000000000000000000000000000000000000000000000000000815260040161142f90613129565b60405180910390fd5b600060036000858152602001908152602001600020600083600701548152602001908152602001600020549050600081116114a8576040517f08c379a000000000000000000000000000000000000000000000000000000000815260040161149f90613195565b60405180910390fd5b60008183600501546114ba91906131e4565b905060016004600087815260200190815260200160002060003373ffffffffffffffffffffffffffffffffffffffff1673ffffffffffffffffffffffffffffffffffffffff168152602001908152602001600020600086815260200190815260200160002060006101000a81548160ff021916908315150217905550611581338260008054906101000a900473ffffffffffffffffffffffffffffffffffffffff1673ffffffffffffffffffffffffffffffffffffffff16611fab9092919063ffffffff16565b5050505050565b600160205282600052604060002060205281600052604060002081815481106115b057600080fd5b9060005260206000200160009250925050505481565b600060066000848152602001908152602001600020905080600301544210611623576040517f08c379a000000000000000000000000000000000000000000000000000000000815260040161161a90613663565b60405180910390fd5b61167233306103e860008054906101000a900473ffffffffffffffffffffffffffffffffffffffff1673ffffffffffffffffffffffffffffffffffffffff16611f29909392919063ffffffff16565b6103e88160050160008282546116889190612edb565b925050819055506001600084815260200190815260200160002060003373ffffffffffffffffffffffffffffffffffffffff1673ffffffffffffffffffffffffffffffffffffffff1681526020019081526020016000208290806001815401808255809150506001900390600052602060002001600090919091909150553373ffffffffffffffffffffffffffffffffffffffff16837f3834a2c8ea101e1468b529270d35fbff0a12de32a5a7e5729b8b4dad6fb32c0160405160405180910390a3505050565b6006602052806000526040600020600091509050806000015490806001018054611778906132d6565b80601f01602080910402602001604051908101604052809291908181526020018280546117a4906132d6565b80156117f15780601f106117c6576101008083540402835291602001916117f1565b820191906000526020600020905b8154815290600101906020018083116117d457829003601f168201915b5050505050908060030154908060040154908060050154908060060160009054906101000a900460ff16908060070154905087565b60006006600086815260200190815260200160002090508060030154421015611884576040517f08c379a000000000000000000000000000000000000000000000000000000000815260040161187b90612bd3565b60405180910390fd5b806004015442106118ca576040517f08c379a00000000000000000000000000000000000000000000000000000000081526004016118c190612c3f565b60405180910390fd5b836001600087815260200190815260200160002060003373ffffffffffffffffffffffffffffffffffffffff1673ffffffffffffffffffffffffffffffffffffffff168152602001908152602001600020805490501161195f576040517f08c379a000000000000000000000000000000000000000000000000000000000815260040161195690612cab565b60405180910390fd5b60006002600087815260200190815260200160002060003373ffffffffffffffffffffffffffffffffffffffff1673ffffffffffffffffffffffffffffffffffffffff16815260200190815260200160002060008681526020019081526020016000205414611a03576040517f08c379a00000000000000000000000000000000000000000000000000000000081526004016119fa90612d17565b60405180910390fd5b82816002018054905011611a4c576040517f08c379a0000000000000000000000000000000000000000000000000000000008152600401611a4390612d83565b60405180910390fd5b60008383604051602001611a61929190612de5565b6040516020818303038152906040528051906020012090506001600087815260200190815260200160002060003373ffffffffffffffffffffffffffffffffffffffff1673ffffffffffffffffffffffffffffffffffffffff1681526020019081526020016000208581548110611adb57611ada612e11565b5b90600052602060002001548114611b27576040517f08c379a0000000000000000000000000000000000000000000000000000000008152600401611b1e90612e8c565b60405180910390fd5b600184611b349190612edb565b6002600088815260200190815260200160002060003373ffffffffffffffffffffffffffffffffffffffff1673ffffffffffffffffffffffffffffffffffffffff1681526020019081526020016000206000878152602001908152602001600020819055506003600087815260200190815260200160002060008581526020019081526020016000206000815480929190611bce90612f0f565b91905055503373ffffffffffffffffffffffffffffffffffffffff16867fd5232b050e3221ade5a3653733191681ef3bde39c4530d87c9bb74004f99dadc86604051611c1a919061230e565b60405180910390a3505050505050565b60006006600083815260200190815260200160002090508060040154421015611c88576040517f08c379a0000000000000000000000000000000000000000000000000000000008152600401611c7f906136cf565b60405180910390fd5b8060060160009054906101000a900460ff1615611cda576040517f08c379a0000000000000000000000000000000000000000000000000000000008152600401611cd19061373b565b60405180910390fd5b6000806000805b8460020180549050811015611d5857600060036000888152602001908152602001600020600083815260200190815260200160002054905084811115611d305780945081935060009250611d4a565b8481148015611d3f5750600085115b15611d4957600192505b5b508080600101915050611ce1565b50600083118015611d67575080155b15611dd75781846007018190555060018460060160006101000a81548160ff021916908315150217905550847f0a65a31222d4c537fe1231c104b70495998ef0979f26ccb3440810cf056d686f83866005015486604051611dca9392919061375b565b60405180910390a2611dd8565b5b5050505050565b61012c81565b606481565b606060066000838152602001908152602001600020600201805480602002602001604051908101604052809291908181526020016000905b82821015611ece578382906000526020600020018054611e41906132d6565b80601f0160208091040260200160405190810160405280929190818152602001828054611e6d906132d6565b8015611eba5780601f10611e8f57610100808354040283529160200191611eba565b820191906000526020600020905b815481529060010190602001808311611e9d57829003601f168201915b505050505081526020019060010190611e22565b505050509050919050565b600860009054906101000a900473ffffffffffffffffffffffffffffffffffffffff1681565b60008054906101000a900473ffffffffffffffffffffffffffffffffffffffff1681565b6103e881565b611fa5848573ffffffffffffffffffffffffffffffffffffffff166323b872dd868686604051602401611f5e93929190613792565b604051602081830303815290604052915060e01b6020820180517bffffffffffffffffffffffffffffffffffffffffffffffffffffffff838183161783525050505061202a565b50505050565b612025838473ffffffffffffffffffffffffffffffffffffffff1663a9059cbb8585604051602401611fde9291906137c9565b604051602081830303815290604052915060e01b6020820180517bffffffffffffffffffffffffffffffffffffffffffffffffffffffff838183161783525050505061202a565b505050565b600080602060008451602086016000885af18061204d576040513d6000823e3d81fd5b3d925060005191505060008214612068576001811415612084565b60008473ffffffffffffffffffffffffffffffffffffffff163b145b156120c657836040517f5274afe70000000000000000000000000000000000000000000000000000000081526004016120bd9190612a1a565b60405180910390fd5b50505050565b828054828255906000526020600020908101928215612114579160200282015b8281111561211357825182908161210391906134a9565b50916020019190600101906120ec565b5b5090506121219190612125565b5090565b5b80821115612145576000818161213c9190612149565b50600101612126565b5090565b508054612155906132d6565b6000825580601f106121675750612186565b601f0160209004906000526020600020908101906121859190612189565b5b50565b5b808211156121a257600081600090555060010161218a565b5090565b6000604051905090565b600080fd5b600080fd5b6000819050919050565b6121cd816121ba565b81146121d857600080fd5b50565b6000813590506121ea816121c4565b92915050565b600073ffffffffffffffffffffffffffffffffffffffff82169050919050565b600061221b826121f0565b9050919050565b61222b81612210565b811461223657600080fd5b50565b60008135905061224881612222565b92915050565b6000819050919050565b6122618161224e565b811461226c57600080fd5b50565b60008135905061227e81612258565b92915050565b600080600080600060a086880312156122a05761229f6121b0565b5b60006122ae888289016121db565b95505060206122bf88828901612239565b94505060406122d0888289016121db565b93505060606122e1888289016121db565b92505060806122f28882890161226f565b9150509295509295909350565b612308816121ba565b82525050565b600060208201905061232360008301846122ff565b92915050565b60006020828403121561233f5761233e6121b0565b5b600061234d848285016121db565b91505092915050565b6000806040838503121561236d5761236c6121b0565b5b600061237b858286016121db565b925050602061238c858286016121db565b9150509250929050565b6000806000606084860312156123af576123ae6121b0565b5b60006123bd868287016121db565b93505060206123ce86828701612239565b92505060406123df868287016121db565b9150509250925092565b60008115159050919050565b6123fe816123e9565b82525050565b600060208201905061241960008301846123f5565b92915050565b600060208284031215612435576124346121b0565b5b600061244384828501612239565b91505092915050565b600080fd5b600080fd5b6000601f19601f8301169050919050565b7f4e487b7100000000000000000000000000000000000000000000000000000000600052604160045260246000fd5b61249f82612456565b810181811067ffffffffffffffff821117156124be576124bd612467565b5b80604052505050565b60006124d16121a6565b90506124dd8282612496565b919050565b600067ffffffffffffffff8211156124fd576124fc612467565b5b61250682612456565b9050602081019050919050565b82818337600083830152505050565b6000612535612530846124e2565b6124c7565b90508281526020810184848401111561255157612550612451565b5b61255c848285612513565b509392505050565b600082601f8301126125795761257861244c565b5b8135612589848260208601612522565b91505092915050565b600067ffffffffffffffff8211156125ad576125ac612467565b5b602082029050602081019050919050565b600080fd5b60006125d66125d184612592565b6124c7565b905080838252602082019050602084028301858111156125f9576125f86125be565b5b835b8181101561264057803567ffffffffffffffff81111561261e5761261d61244c565b5b80860161262b8982612564565b855260208501945050506020810190506125fb565b5050509392505050565b600082601f83011261265f5761265e61244c565b5b813561266f8482602086016125c3565b91505092915050565b60008060008060808587031215612692576126916121b0565b5b600085013567ffffffffffffffff8111156126b0576126af6121b5565b5b6126bc87828801612564565b945050602085013567ffffffffffffffff8111156126dd576126dc6121b5565b5b6126e98782880161264a565b93505060406126fa878288016121db565b925050606061270b878288016121db565b91505092959194509250565b6127208161224e565b82525050565b600060208201905061273b6000830184612717565b92915050565b60008060408385031215612758576127576121b0565b5b6000612766858286016121db565b92505060206127778582860161226f565b9150509250929050565b600081519050919050565b600082825260208201905092915050565b60005b838110156127bb5780820151818401526020810190506127a0565b60008484015250505050565b60006127d282612781565b6127dc818561278c565b93506127ec81856020860161279d565b6127f581612456565b840191505092915050565b600060e082019050612815600083018a6122ff565b818103602083015261282781896127c7565b905061283660408301886122ff565b61284360608301876122ff565b61285060808301866122ff565b61285d60a08301856123f5565b61286a60c08301846122ff565b98975050505050505050565b600080600080608085870312156128905761288f6121b0565b5b600061289e878288016121db565b94505060206128af878288016121db565b93505060406128c0878288016121db565b92505060606128d18782880161226f565b91505092959194509250565b600081519050919050565b600082825260208201905092915050565b6000819050602082019050919050565b600082825260208201905092915050565b600061292582612781565b61292f8185612909565b935061293f81856020860161279d565b61294881612456565b840191505092915050565b600061295f838361291a565b905092915050565b6000602082019050919050565b600061297f826128dd565b61298981856128e8565b93508360208202850161299b856128f9565b8060005b858110156129d757848403895281516129b88582612953565b94506129c383612967565b925060208a0199505060018101905061299f565b50829750879550505050505092915050565b60006020820190508181036000830152612a038184612974565b905092915050565b612a1481612210565b82525050565b6000602082019050612a2f6000830184612a0b565b92915050565b6000819050919050565b6000612a5a612a55612a50846121f0565b612a35565b6121f0565b9050919050565b6000612a6c82612a3f565b9050919050565b6000612a7e82612a61565b9050919050565b612a8e81612a73565b82525050565b6000602082019050612aa96000830184612a85565b92915050565b7f4e6f742061646d696e0000000000000000000000000000000000000000000000600082015250565b6000612ae560098361278c565b9150612af082612aaf565b602082019050919050565b60006020820190508181036000830152612b1481612ad8565b9050919050565b7f55736572206973206e6f74207072656d69756d00000000000000000000000000600082015250565b6000612b5160138361278c565b9150612b5c82612b1b565b602082019050919050565b60006020820190508181036000830152612b8081612b44565b9050919050565b7f436f6d6d6974207068617365206e6f7420656e64656400000000000000000000600082015250565b6000612bbd60168361278c565b9150612bc882612b87565b602082019050919050565b60006020820190508181036000830152612bec81612bb0565b9050919050565b7f52657665616c20706861736520656e6465640000000000000000000000000000600082015250565b6000612c2960128361278c565b9150612c3482612bf3565b602082019050919050565b60006020820190508181036000830152612c5881612c1c565b9050919050565b7f496e76616c696420636f6d6d69746d656e7420696e6465780000000000000000600082015250565b6000612c9560188361278c565b9150612ca082612c5f565b602082019050919050565b60006020820190508181036000830152612cc481612c88565b9050919050565b7f416c72656164792072657665616c656400000000000000000000000000000000600082015250565b6000612d0160108361278c565b9150612d0c82612ccb565b602082019050919050565b60006020820190508181036000830152612d3081612cf4565b9050919050565b7f496e76616c6964206f7074696f6e20696e646578000000000000000000000000600082015250565b6000612d6d60148361278c565b9150612d7882612d37565b602082019050919050565b60006020820190508181036000830152612d9c81612d60565b9050919050565b6000819050919050565b612dbe612db9826121ba565b612da3565b82525050565b6000819050919050565b612ddf612dda8261224e565b612dc4565b82525050565b6000612df18285612dad565b602082019150612e018284612dce565b6020820191508190509392505050565b7f4e487b7100000000000000000000000000000000000000000000000000000000600052603260045260246000fd5b7f48617368206d69736d6174636800000000000000000000000000000000000000600082015250565b6000612e76600d8361278c565b9150612e8182612e40565b602082019050919050565b60006020820190508181036000830152612ea581612e69565b9050919050565b7f4e487b7100000000000000000000000000000000000000000000000000000000600052601160045260246000fd5b6000612ee6826121ba565b9150612ef1836121ba565b9250828201905080821115612f0957612f08612eac565b5b92915050565b6000612f1a826121ba565b91507fffffffffffffffffffffffffffffffffffffffffffffffffffffffffffffffff8203612f4c57612f4b612eac565b5b600182019050919050565b7f496e76616c6964206475726174696f6e3a205573652037206f72203330000000600082015250565b6000612f8d601d8361278c565b9150612f9882612f57565b602082019050919050565b60006020820190508181036000830152612fbc81612f80565b9050919050565b6000612fce826121ba565b9150612fd9836121ba565b9250828202612fe7816121ba565b91508282048414831517612ffe57612ffd612eac565b5b5092915050565b7f506f6c6c206e6f74207265736f6c766564000000000000000000000000000000600082015250565b600061303b60118361278c565b915061304682613005565b602082019050919050565b6000602082019050818103600083015261306a8161302e565b9050919050565b7f5573657220646964206e6f742077696e00000000000000000000000000000000600082015250565b60006130a760108361278c565b91506130b282613071565b602082019050919050565b600060208201905081810360008301526130d68161309a565b9050919050565b7f416c726561647920636c61696d65640000000000000000000000000000000000600082015250565b6000613113600f8361278c565b915061311e826130dd565b602082019050919050565b6000602082019050818103600083015261314281613106565b9050919050565b7f4e6f2077696e6e6572733f204572726f722e0000000000000000000000000000600082015250565b600061317f60128361278c565b915061318a82613149565b602082019050919050565b600060208201905081810360008301526131ae81613172565b9050919050565b7f4e487b7100000000000000000000000000000000000000000000000000000000600052601260045260246000fd5b60006131ef826121ba565b91506131fa836121ba565b92508261320a576132096131b5565b5b828204905092915050565b7f4f6e6c79207072656d69756d2075736572732063616e2063726561746520706f60008201527f6c6c730000000000000000000000000000000000000000000000000000000000602082015250565b600061327160238361278c565b915061327c82613215565b604082019050919050565b600060208201905081810360008301526132a081613264565b9050919050565b7f4e487b7100000000000000000000000000000000000000000000000000000000600052602260045260246000fd5b600060028204905060018216806132ee57607f821691505b602082108103613301576133006132a7565b5b50919050565b60008190508160005260206000209050919050565b60006020601f8301049050919050565b600082821b905092915050565b6000600883026133697fffffffffffffffffffffffffffffffffffffffffffffffffffffffffffffffff8261332c565b613373868361332c565b95508019841693508086168417925050509392505050565b60006133a66133a161339c846121ba565b612a35565b6121ba565b9050919050565b6000819050919050565b6133c08361338b565b6133d46133cc826133ad565b848454613339565b825550505050565b600090565b6133e96133dc565b6133f48184846133b7565b505050565b5b818110156134185761340d6000826133e1565b6001810190506133fa565b5050565b601f82111561345d5761342e81613307565b6134378461331c565b81016020851015613446578190505b61345a6134528561331c565b8301826133f9565b50505b505050565b600082821c905092915050565b600061348060001984600802613462565b1980831691505092915050565b6000613499838361346f565b9150826002028217905092915050565b6134b282612781565b67ffffffffffffffff8111156134cb576134ca612467565b5b6134d582546132d6565b6134e082828561341c565b600060209050601f8311600181146135135760008415613501578287015190505b61350b858261348d565b865550613573565b601f19841661352186613307565b60005b8281101561354957848901518255600182019150602085019450602081019050613524565b868310156135665784890151613562601f89168261346f565b8355505b6001600288020188555050505b505050505050565b6000604082019050818103600083015261359581856127c7565b90506135a460208301846122ff565b9392505050565b7f596f7520646964206e6f742077696e206174207468697320696e646578000000600082015250565b60006135e1601d8361278c565b91506135ec826135ab565b602082019050919050565b60006020820190508181036000830152613610816135d4565b9050919050565b7f436f6d6d697420706861736520656e6465640000000000000000000000000000600082015250565b600061364d60128361278c565b915061365882613617565b602082019050919050565b6000602082019050818103600083015261367c81613640565b9050919050565b7f52657665616c207068617365206e6f7420656e64656400000000000000000000600082015250565b60006136b960168361278c565b91506136c482613683565b602082019050919050565b600060208201905081810360008301526136e8816136ac565b9050919050565b7f416c7265616479207265736f6c76656400000000000000000000000000000000600082015250565b600061372560108361278c565b9150613730826136ef565b602082019050919050565b6000602082019050818103600083015261375481613718565b9050919050565b600060608201905061377060008301866122ff565b61377d60208301856122ff565b61378a60408301846122ff565b949350505050565b60006060820190506137a76000830186612a0b565b6137b46020830185612a0b565b6137c160408301846122ff565b949350505050565b60006040820190506137de6000830185612a0b565b6137eb60208301846122ff565b939250505056fea26469706673582212207a9e2c126917073be66f52b925ae0dd8f77d66f07f32d6ef5a6397d8f767504064736f6c63430008180033",
  "linkReferences": {},
  "deployedLinkReferences": {}
}